{
  "contractName": "Pool",
  "abi": [
    {
      "inputs": [
        {
          "internalType": "contract IWFIL",
          "name": "_wfil",
          "type": "address"
        },
        {
          "internalType": "string",
          "name": "_name",
          "type": "string"
        },
        {
          "internalType": "string",
          "name": "_symbol",
          "type": "string"
        }
      ],
      "stateMutability": "nonpayable",
      "type": "constructor"
    },
    {
      "anonymous": false,
      "inputs": [
        {
          "indexed": true,
          "internalType": "address",
          "name": "owner",
          "type": "address"
        },
        {
          "indexed": true,
          "internalType": "address",
          "name": "spender",
          "type": "address"
        },
        {
          "indexed": false,
          "internalType": "uint256",
          "name": "amount",
          "type": "uint256"
        }
      ],
      "name": "Approval",
      "type": "event"
    },
    {
      "anonymous": false,
      "inputs": [
        {
          "indexed": true,
          "internalType": "address",
          "name": "caller",
          "type": "address"
        },
        {
          "indexed": true,
          "internalType": "address",
          "name": "owner",
          "type": "address"
        },
        {
          "indexed": false,
          "internalType": "uint256",
          "name": "assets",
          "type": "uint256"
        },
        {
          "indexed": false,
          "internalType": "uint256",
          "name": "shares",
          "type": "uint256"
        }
      ],
      "name": "Deposit",
      "type": "event"
    },
    {
      "anonymous": false,
      "inputs": [
        {
          "indexed": true,
          "internalType": "address",
          "name": "from",
          "type": "address"
        },
        {
          "indexed": true,
          "internalType": "address",
          "name": "to",
          "type": "address"
        },
        {
          "indexed": false,
          "internalType": "uint256",
          "name": "amount",
          "type": "uint256"
        }
      ],
      "name": "Transfer",
      "type": "event"
    },
    {
      "anonymous": false,
      "inputs": [
        {
          "indexed": true,
          "internalType": "address",
          "name": "caller",
          "type": "address"
        },
        {
          "indexed": true,
          "internalType": "address",
          "name": "receiver",
          "type": "address"
        },
        {
          "indexed": true,
          "internalType": "address",
          "name": "owner",
          "type": "address"
        },
        {
          "indexed": false,
          "internalType": "uint256",
          "name": "assets",
          "type": "uint256"
        },
        {
          "indexed": false,
          "internalType": "uint256",
          "name": "shares",
          "type": "uint256"
        }
      ],
      "name": "Withdraw",
      "type": "event"
    },
    {
      "inputs": [],
      "name": "DOMAIN_SEPARATOR",
      "outputs": [
        {
          "internalType": "bytes32",
          "name": "",
          "type": "bytes32"
        }
      ],
      "stateMutability": "view",
      "type": "function"
    },
    {
      "inputs": [],
      "name": "StorageProviderContract",
      "outputs": [
        {
          "internalType": "address",
          "name": "",
          "type": "address"
        }
      ],
      "stateMutability": "view",
      "type": "function"
    },
    {
      "inputs": [
        {
          "internalType": "address",
          "name": "",
          "type": "address"
        },
        {
          "internalType": "address",
          "name": "",
          "type": "address"
        }
      ],
      "name": "allowance",
      "outputs": [
        {
          "internalType": "uint256",
          "name": "",
          "type": "uint256"
        }
      ],
      "stateMutability": "view",
      "type": "function"
    },
    {
      "inputs": [
        {
          "internalType": "address",
          "name": "spender",
          "type": "address"
        },
        {
          "internalType": "uint256",
          "name": "amount",
          "type": "uint256"
        }
      ],
      "name": "approve",
      "outputs": [
        {
          "internalType": "bool",
          "name": "",
          "type": "bool"
        }
      ],
      "stateMutability": "nonpayable",
      "type": "function"
    },
    {
      "inputs": [],
      "name": "asset",
      "outputs": [
        {
          "internalType": "contract ERC20",
          "name": "",
          "type": "address"
        }
      ],
      "stateMutability": "view",
      "type": "function"
    },
    {
      "inputs": [
        {
          "internalType": "address",
          "name": "",
          "type": "address"
        }
      ],
      "name": "balanceOf",
      "outputs": [
        {
          "internalType": "uint256",
          "name": "",
          "type": "uint256"
        }
      ],
      "stateMutability": "view",
      "type": "function"
    },
    {
      "inputs": [
        {
          "internalType": "address",
          "name": "",
          "type": "address"
        }
      ],
      "name": "collateralStore",
      "outputs": [
        {
          "internalType": "uint256",
          "name": "",
          "type": "uint256"
        }
      ],
      "stateMutability": "view",
      "type": "function"
    },
    {
      "inputs": [
        {
          "internalType": "uint256",
          "name": "shares",
          "type": "uint256"
        }
      ],
      "name": "convertToAssets",
      "outputs": [
        {
          "internalType": "uint256",
          "name": "",
          "type": "uint256"
        }
      ],
      "stateMutability": "view",
      "type": "function"
    },
    {
      "inputs": [
        {
          "internalType": "uint256",
          "name": "assets",
          "type": "uint256"
        }
      ],
      "name": "convertToShares",
      "outputs": [
        {
          "internalType": "uint256",
          "name": "",
          "type": "uint256"
        }
      ],
      "stateMutability": "view",
      "type": "function"
    },
    {
      "inputs": [],
      "name": "decimals",
      "outputs": [
        {
          "internalType": "uint8",
          "name": "",
          "type": "uint8"
        }
      ],
      "stateMutability": "view",
      "type": "function"
    },
    {
      "inputs": [
        {
          "internalType": "uint256",
          "name": "assets",
          "type": "uint256"
        },
        {
          "internalType": "address",
          "name": "receiver",
          "type": "address"
        }
      ],
      "name": "deposit",
      "outputs": [
        {
          "internalType": "uint256",
          "name": "shares",
          "type": "uint256"
        }
      ],
      "stateMutability": "nonpayable",
      "type": "function"
    },
    {
      "inputs": [
        {
          "internalType": "address",
          "name": "",
          "type": "address"
        }
      ],
      "name": "maxDeposit",
      "outputs": [
        {
          "internalType": "uint256",
          "name": "",
          "type": "uint256"
        }
      ],
      "stateMutability": "view",
      "type": "function"
    },
    {
      "inputs": [
        {
          "internalType": "address",
          "name": "",
          "type": "address"
        }
      ],
      "name": "maxMint",
      "outputs": [
        {
          "internalType": "uint256",
          "name": "",
          "type": "uint256"
        }
      ],
      "stateMutability": "view",
      "type": "function"
    },
    {
      "inputs": [
        {
          "internalType": "address",
          "name": "owner",
          "type": "address"
        }
      ],
      "name": "maxRedeem",
      "outputs": [
        {
          "internalType": "uint256",
          "name": "",
          "type": "uint256"
        }
      ],
      "stateMutability": "view",
      "type": "function"
    },
    {
      "inputs": [
        {
          "internalType": "address",
          "name": "owner",
          "type": "address"
        }
      ],
      "name": "maxWithdraw",
      "outputs": [
        {
          "internalType": "uint256",
          "name": "",
          "type": "uint256"
        }
      ],
      "stateMutability": "view",
      "type": "function"
    },
    {
      "inputs": [
        {
          "internalType": "uint256",
          "name": "shares",
          "type": "uint256"
        },
        {
          "internalType": "address",
          "name": "receiver",
          "type": "address"
        }
      ],
      "name": "mint",
      "outputs": [
        {
          "internalType": "uint256",
          "name": "assets",
          "type": "uint256"
        }
      ],
      "stateMutability": "nonpayable",
      "type": "function"
    },
    {
      "inputs": [],
      "name": "name",
      "outputs": [
        {
          "internalType": "string",
          "name": "",
          "type": "string"
        }
      ],
      "stateMutability": "view",
      "type": "function"
    },
    {
      "inputs": [
        {
          "internalType": "address",
          "name": "",
          "type": "address"
        }
      ],
      "name": "nonces",
      "outputs": [
        {
          "internalType": "uint256",
          "name": "",
          "type": "uint256"
        }
      ],
      "stateMutability": "view",
      "type": "function"
    },
    {
      "inputs": [
        {
          "internalType": "address",
          "name": "owner",
          "type": "address"
        },
        {
          "internalType": "address",
          "name": "spender",
          "type": "address"
        },
        {
          "internalType": "uint256",
          "name": "value",
          "type": "uint256"
        },
        {
          "internalType": "uint256",
          "name": "deadline",
          "type": "uint256"
        },
        {
          "internalType": "uint8",
          "name": "v",
          "type": "uint8"
        },
        {
          "internalType": "bytes32",
          "name": "r",
          "type": "bytes32"
        },
        {
          "internalType": "bytes32",
          "name": "s",
          "type": "bytes32"
        }
      ],
      "name": "permit",
      "outputs": [],
      "stateMutability": "nonpayable",
      "type": "function"
    },
    {
      "inputs": [
        {
          "internalType": "uint256",
          "name": "assets",
          "type": "uint256"
        }
      ],
      "name": "previewDeposit",
      "outputs": [
        {
          "internalType": "uint256",
          "name": "",
          "type": "uint256"
        }
      ],
      "stateMutability": "view",
      "type": "function"
    },
    {
      "inputs": [
        {
          "internalType": "uint256",
          "name": "shares",
          "type": "uint256"
        }
      ],
      "name": "previewMint",
      "outputs": [
        {
          "internalType": "uint256",
          "name": "",
          "type": "uint256"
        }
      ],
      "stateMutability": "view",
      "type": "function"
    },
    {
      "inputs": [
        {
          "internalType": "uint256",
          "name": "shares",
          "type": "uint256"
        }
      ],
      "name": "previewRedeem",
      "outputs": [
        {
          "internalType": "uint256",
          "name": "",
          "type": "uint256"
        }
      ],
      "stateMutability": "view",
      "type": "function"
    },
    {
      "inputs": [
        {
          "internalType": "uint256",
          "name": "assets",
          "type": "uint256"
        }
      ],
      "name": "previewWithdraw",
      "outputs": [
        {
          "internalType": "uint256",
          "name": "",
          "type": "uint256"
        }
      ],
      "stateMutability": "view",
      "type": "function"
    },
    {
      "inputs": [
        {
          "internalType": "uint256",
          "name": "shares",
          "type": "uint256"
        },
        {
          "internalType": "address",
          "name": "receiver",
          "type": "address"
        },
        {
          "internalType": "address",
          "name": "owner",
          "type": "address"
        }
      ],
      "name": "redeem",
      "outputs": [
        {
          "internalType": "uint256",
          "name": "assets",
          "type": "uint256"
        }
      ],
      "stateMutability": "nonpayable",
      "type": "function"
    },
    {
      "inputs": [
        {
          "internalType": "address",
          "name": "",
          "type": "address"
        }
      ],
      "name": "staker",
      "outputs": [
        {
          "internalType": "uint256",
          "name": "",
          "type": "uint256"
        }
      ],
      "stateMutability": "view",
      "type": "function"
    },
    {
      "inputs": [],
      "name": "symbol",
      "outputs": [
        {
          "internalType": "string",
          "name": "",
          "type": "string"
        }
      ],
      "stateMutability": "view",
      "type": "function"
    },
    {
      "inputs": [],
      "name": "totalSupply",
      "outputs": [
        {
          "internalType": "uint256",
          "name": "",
          "type": "uint256"
        }
      ],
      "stateMutability": "view",
      "type": "function"
    },
    {
      "inputs": [
        {
          "internalType": "address",
          "name": "to",
          "type": "address"
        },
        {
          "internalType": "uint256",
          "name": "amount",
          "type": "uint256"
        }
      ],
      "name": "transfer",
      "outputs": [
        {
          "internalType": "bool",
          "name": "",
          "type": "bool"
        }
      ],
      "stateMutability": "nonpayable",
      "type": "function"
    },
    {
      "inputs": [
        {
          "internalType": "address",
          "name": "from",
          "type": "address"
        },
        {
          "internalType": "address",
          "name": "to",
          "type": "address"
        },
        {
          "internalType": "uint256",
          "name": "amount",
          "type": "uint256"
        }
      ],
      "name": "transferFrom",
      "outputs": [
        {
          "internalType": "bool",
          "name": "",
          "type": "bool"
        }
      ],
      "stateMutability": "nonpayable",
      "type": "function"
    },
    {
      "inputs": [],
      "name": "wfil",
      "outputs": [
        {
          "internalType": "contract IWFIL",
          "name": "",
          "type": "address"
        }
      ],
      "stateMutability": "view",
      "type": "function"
    },
    {
      "inputs": [
        {
          "internalType": "uint256",
          "name": "assets",
          "type": "uint256"
        },
        {
          "internalType": "address",
          "name": "receiver",
          "type": "address"
        },
        {
          "internalType": "address",
          "name": "owner",
          "type": "address"
        }
      ],
      "name": "withdraw",
      "outputs": [
        {
          "internalType": "uint256",
          "name": "shares",
          "type": "uint256"
        }
      ],
      "stateMutability": "nonpayable",
      "type": "function"
    },
    {
      "stateMutability": "payable",
      "type": "receive"
    },
    {
      "inputs": [
        {
          "internalType": "address",
          "name": "StorageProvider",
          "type": "address"
        }
      ],
      "name": "setStorageProvider",
      "outputs": [],
      "stateMutability": "nonpayable",
      "type": "function"
    },
    {
      "inputs": [
        {
          "internalType": "uint256",
          "name": "_assets",
          "type": "uint256"
        }
      ],
      "name": "stake",
      "outputs": [],
      "stateMutability": "payable",
      "type": "function"
    },
    {
      "inputs": [
        {
          "internalType": "uint256",
          "name": "_shares",
          "type": "uint256"
        }
      ],
      "name": "unstake",
      "outputs": [],
      "stateMutability": "nonpayable",
      "type": "function"
    },
    {
      "inputs": [],
      "name": "totalAssets",
      "outputs": [
        {
          "internalType": "uint256",
          "name": "",
          "type": "uint256"
        }
      ],
      "stateMutability": "view",
      "type": "function"
    },
    {
      "inputs": [
        {
          "internalType": "address",
          "name": "_user",
          "type": "address"
        }
      ],
      "name": "totalAssetsOfUser",
      "outputs": [
        {
          "internalType": "uint256",
          "name": "",
          "type": "uint256"
        }
      ],
      "stateMutability": "view",
      "type": "function"
    },
    {
      "inputs": [],
      "name": "getDetails",
      "outputs": [
        {
          "components": [
            {
              "internalType": "bool",
              "name": "isRegistered",
              "type": "bool"
            },
            {
              "internalType": "address",
              "name": "ethAddress",
              "type": "address"
            },
            {
              "internalType": "uint64",
              "name": "actorid",
              "type": "uint64"
            },
            {
              "internalType": "uint256",
              "name": "currentLoan",
              "type": "uint256"
            },
            {
              "internalType": "uint64",
              "name": "reputation_score",
              "type": "uint64"
            },
            {
              "internalType": "uint256",
              "name": "collateral",
              "type": "uint256"
            },
            {
              "internalType": "enum SPstruct.Status",
              "name": "status",
              "type": "uint8"
            }
          ],
          "internalType": "struct SPstruct.StorageProvider",
          "name": "",
          "type": "tuple"
        }
      ],
      "stateMutability": "view",
      "type": "function"
    },
    {
      "inputs": [],
      "name": "lend",
      "outputs": [],
      "stateMutability": "payable",
      "type": "function"
    },
    {
      "inputs": [],
      "name": "native",
      "outputs": [
        {
          "internalType": "uint256",
          "name": "",
          "type": "uint256"
        }
      ],
      "stateMutability": "view",
      "type": "function"
    }
  ],
  "bytecode": "0x61012060405234801562000011575f80fd5b506040516200450a3803806200450a8339818101604052810190620000379190620003fb565b82828281818473ffffffffffffffffffffffffffffffffffffffff1663313ce5676040518163ffffffff1660e01b8152600401602060405180830381865afa15801562000086573d5f803e3d5ffd5b505050506040513d601f19601f82011682018060405250810190620000ac9190620004cd565b825f9081620000bc919062000734565b508160019081620000ce919062000734565b508060ff1660808160ff16815250504660a08181525050620000f56200017460201b60201c565b60c081815250505050508273ffffffffffffffffffffffffffffffffffffffff1660e08173ffffffffffffffffffffffffffffffffffffffff16815250505050508273ffffffffffffffffffffffffffffffffffffffff166101008173ffffffffffffffffffffffffffffffffffffffff16815250505050506200096f565b5f7f8b73c3c69bb8fe3d512ecc4cf759cc79239f7b179b0ffacaa9a75d522b39400f5f604051620001a69190620008c0565b60405180910390207fc89efdaa54c0f20c7adf612882df0950f5a951637e0307cdcb4c672f298b8bc64630604051602001620001e795949392919062000914565b60405160208183030381529060405280519060200120905090565b5f604051905090565b5f80fd5b5f80fd5b5f73ffffffffffffffffffffffffffffffffffffffff82169050919050565b5f6200023e8262000213565b9050919050565b5f620002518262000232565b9050919050565b620002638162000245565b81146200026e575f80fd5b50565b5f81519050620002818162000258565b92915050565b5f80fd5b5f80fd5b5f601f19601f8301169050919050565b7f4e487b71000000000000000000000000000000000000000000000000000000005f52604160045260245ffd5b620002d7826200028f565b810181811067ffffffffffffffff82111715620002f957620002f86200029f565b5b80604052505050565b5f6200030d62000202565b90506200031b8282620002cc565b919050565b5f67ffffffffffffffff8211156200033d576200033c6200029f565b5b62000348826200028f565b9050602081019050919050565b5f5b838110156200037457808201518184015260208101905062000357565b5f8484015250505050565b5f620003956200038f8462000320565b62000302565b905082815260208101848484011115620003b457620003b36200028b565b5b620003c184828562000355565b509392505050565b5f82601f830112620003e057620003df62000287565b5b8151620003f28482602086016200037f565b91505092915050565b5f805f606084860312156200041557620004146200020b565b5b5f620004248682870162000271565b935050602084015167ffffffffffffffff8111156200044857620004476200020f565b5b6200045686828701620003c9565b925050604084015167ffffffffffffffff8111156200047a57620004796200020f565b5b6200048886828701620003c9565b9150509250925092565b5f60ff82169050919050565b620004a98162000492565b8114620004b4575f80fd5b50565b5f81519050620004c7816200049e565b92915050565b5f60208284031215620004e557620004e46200020b565b5b5f620004f484828501620004b7565b91505092915050565b5f81519050919050565b7f4e487b71000000000000000000000000000000000000000000000000000000005f52602260045260245ffd5b5f60028204905060018216806200054c57607f821691505b60208210810362000562576200056162000507565b5b50919050565b5f819050815f5260205f209050919050565b5f6020601f8301049050919050565b5f82821b905092915050565b5f60088302620005c67fffffffffffffffffffffffffffffffffffffffffffffffffffffffffffffffff8262000589565b620005d2868362000589565b95508019841693508086168417925050509392505050565b5f819050919050565b5f819050919050565b5f6200061c620006166200061084620005ea565b620005f3565b620005ea565b9050919050565b5f819050919050565b6200063783620005fc565b6200064f620006468262000623565b84845462000595565b825550505050565b5f90565b6200066562000657565b620006728184846200062c565b505050565b5b8181101562000699576200068d5f826200065b565b60018101905062000678565b5050565b601f821115620006e857620006b28162000568565b620006bd846200057a565b81016020851015620006cd578190505b620006e5620006dc856200057a565b83018262000677565b50505b505050565b5f82821c905092915050565b5f6200070a5f1984600802620006ed565b1980831691505092915050565b5f620007248383620006f9565b9150826002028217905092915050565b6200073f82620004fd565b67ffffffffffffffff8111156200075b576200075a6200029f565b5b62000767825462000534565b620007748282856200069d565b5f60209050601f831160018114620007aa575f841562000795578287015190505b620007a1858262000717565b86555062000810565b601f198416620007ba8662000568565b5f5b82811015620007e357848901518255600182019150602085019450602081019050620007bc565b86831015620008035784890151620007ff601f891682620006f9565b8355505b6001600288020188555050505b505050505050565b5f81905092915050565b5f819050815f5260205f209050919050565b5f8154620008428162000534565b6200084e818662000818565b9450600182165f81146200086b57600181146200088157620008b7565b60ff1983168652811515820286019350620008b7565b6200088c8562000822565b5f5b83811015620008af578154818901526001820191506020810190506200088e565b838801955050505b50505092915050565b5f620008cd828462000834565b915081905092915050565b5f819050919050565b620008ec81620008d8565b82525050565b620008fd81620005ea565b82525050565b6200090e8162000232565b82525050565b5f60a082019050620009295f830188620008e1565b620009386020830187620008e1565b620009476040830186620008e1565b620009566060830185620008f2565b62000965608083018462000903565b9695505050505050565b60805160a05160c05160e05161010051613b1e620009ec5f395f81816110410152818161144501528181611738015261189d01525f8181610a11015281816111ec0152818161124f015281816113530152818161149001528181611cc50152611f5801525f6111c501525f61119101525f61116c0152613b1e5ff3fe608060405260043610610233575f3560e01c80637ecebe001161012d578063ba087652116100aa578063d505accf1161006e578063d505accf14610908578063d905777e14610930578063dd62ed3e1461096c578063ef8b30f7146109a8578063fbbf93a0146109e45761023a565b8063ba087652146107f0578063c63d75b61461082c578063c6e6f59214610868578063cdc99b62146108a4578063ce96cb77146108cc5761023a565b806397dffc61116100f157806397dffc6114610716578063a694fc3a14610720578063a9059cbb1461073c578063b3d7f6b914610778578063b460af94146107b45761023a565b80637ecebe001461060e5780638047ea821461064a57806382e4eda41461067457806394bf804d146106b057806395d89b41146106ec5761023a565b80632e17de78116101bb578063402d267d1161017f578063402d267d146104e257806345be27b61461051e5780634cdad5061461055a5780636e553f651461059657806370a08231146105d25761023a565b80632e17de7814610400578063313ce567146104285780633644e5151461045257806338d52e0f1461047c57806338fb5039146104a65761023a565b80630a28a477116102025780630a28a4771461030a57806311b0b42d1461034657806318160ddd1461037057806323b872dd1461039a578063241f606e146103d65761023a565b806301e1d1141461023e57806306fdde031461026857806307a2d13a14610292578063095ea7b3146102ce5761023a565b3661023a57005b5f80fd5b348015610249575f80fd5b50610252610a0e565b60405161025f919061294f565b60405180910390f35b348015610273575f80fd5b5061027c610aac565b60405161028991906129f2565b60405180910390f35b34801561029d575f80fd5b506102b860048036038101906102b39190612a49565b610b37565b6040516102c5919061294f565b60405180910390f35b3480156102d9575f80fd5b506102f460048036038101906102ef9190612ace565b610b70565b6040516103019190612b26565b60405180910390f35b348015610315575f80fd5b50610330600480360381019061032b9190612a49565b610c5d565b60405161033d919061294f565b60405180910390f35b348015610351575f80fd5b5061035a610c96565b604051610367919061294f565b60405180910390f35b34801561037b575f80fd5b50610384610c9d565b604051610391919061294f565b60405180910390f35b3480156103a5575f80fd5b506103c060048036038101906103bb9190612b3f565b610ca3565b6040516103cd9190612b26565b60405180910390f35b3480156103e1575f80fd5b506103ea610ede565b6040516103f79190612b9e565b60405180910390f35b34801561040b575f80fd5b5061042660048036038101906104219190612a49565b610f03565b005b348015610433575f80fd5b5061043c61116a565b6040516104499190612bd2565b60405180910390f35b34801561045d575f80fd5b5061046661118e565b6040516104739190612c03565b60405180910390f35b348015610487575f80fd5b506104906111ea565b60405161049d9190612c77565b60405180910390f35b3480156104b1575f80fd5b506104cc60048036038101906104c79190612c90565b61120e565b6040516104d9919061294f565b60405180910390f35b3480156104ed575f80fd5b5061050860048036038101906105039190612c90565b611223565b604051610515919061294f565b60405180910390f35b348015610529575f80fd5b50610544600480360381019061053f9190612c90565b61124c565b604051610551919061294f565b60405180910390f35b348015610565575f80fd5b50610580600480360381019061057b9190612a49565b6112ec565b60405161058d919061294f565b60405180910390f35b3480156105a1575f80fd5b506105bc60048036038101906105b79190612cbb565b6112fd565b6040516105c9919061294f565b60405180910390f35b3480156105dd575f80fd5b506105f860048036038101906105f39190612c90565b611419565b604051610605919061294f565b60405180910390f35b348015610619575f80fd5b50610634600480360381019061062f9190612c90565b61142e565b604051610641919061294f565b60405180910390f35b348015610655575f80fd5b5061065e611443565b60405161066b9190612d19565b60405180910390f35b34801561067f575f80fd5b5061069a60048036038101906106959190612c90565b611467565b6040516106a7919061294f565b60405180910390f35b3480156106bb575f80fd5b506106d660048036038101906106d19190612cbb565b61147c565b6040516106e3919061294f565b60405180910390f35b3480156106f7575f80fd5b50610700611556565b60405161070d91906129f2565b60405180910390f35b61071e6115e2565b005b61073a60048036038101906107359190612a49565b61180b565b005b348015610747575f80fd5b50610762600480360381019061075d9190612ace565b611979565b60405161076f9190612b26565b60405180910390f35b348015610783575f80fd5b5061079e60048036038101906107999190612a49565b611a86565b6040516107ab919061294f565b60405180910390f35b3480156107bf575f80fd5b506107da60048036038101906107d59190612d32565b611abf565b6040516107e7919061294f565b60405180910390f35b3480156107fb575f80fd5b5061081660048036038101906108119190612d32565b611d10565b604051610823919061294f565b60405180910390f35b348015610837575f80fd5b50610852600480360381019061084d9190612c90565b611fa3565b60405161085f919061294f565b60405180910390f35b348015610873575f80fd5b5061088e60048036038101906108899190612a49565b611fcc565b60405161089b919061294f565b60405180910390f35b3480156108af575f80fd5b506108ca60048036038101906108c59190612c90565b612005565b005b3480156108d7575f80fd5b506108f260048036038101906108ed9190612c90565b612048565b6040516108ff919061294f565b60405180910390f35b348015610913575f80fd5b5061092e60048036038101906109299190612dd6565b612096565b005b34801561093b575f80fd5b5061095660048036038101906109519190612c90565b612383565b604051610963919061294f565b60405180910390f35b348015610977575f80fd5b50610992600480360381019061098d9190612e73565b6123c9565b60405161099f919061294f565b60405180910390f35b3480156109b3575f80fd5b506109ce60048036038101906109c99190612a49565b6123e9565b6040516109db919061294f565b60405180910390f35b3480156109ef575f80fd5b506109f86123fa565b604051610a059190612fff565b60405180910390f35b5f7f000000000000000000000000000000000000000000000000000000000000000073ffffffffffffffffffffffffffffffffffffffff166370a08231306040518263ffffffff1660e01b8152600401610a689190612b9e565b602060405180830381865afa158015610a83573d5f803e3d5ffd5b505050506040513d601f19601f82011682018060405250810190610aa7919061302c565b905090565b5f8054610ab890613084565b80601f0160208091040260200160405190810160405280929190818152602001828054610ae490613084565b8015610b2f5780601f10610b0657610100808354040283529160200191610b2f565b820191905f5260205f20905b815481529060010190602001808311610b1257829003601f168201915b505050505081565b5f8060025490505f8114610b6657610b61610b50610a0e565b82856124a09092919063ffffffff16565b610b68565b825b915050919050565b5f8160045f3373ffffffffffffffffffffffffffffffffffffffff1673ffffffffffffffffffffffffffffffffffffffff1681526020019081526020015f205f8573ffffffffffffffffffffffffffffffffffffffff1673ffffffffffffffffffffffffffffffffffffffff1681526020019081526020015f20819055508273ffffffffffffffffffffffffffffffffffffffff163373ffffffffffffffffffffffffffffffffffffffff167f8c5be1e5ebec7d5bd14f71427d1e84f3dd0314c0f7b2291e5b200ac8c7c3b92584604051610c4b919061294f565b60405180910390a36001905092915050565b5f8060025490505f8114610c8c57610c8781610c77610a0e565b856124e19092919063ffffffff16565b610c8e565b825b915050919050565b5f47905090565b60025481565b5f8060045f8673ffffffffffffffffffffffffffffffffffffffff1673ffffffffffffffffffffffffffffffffffffffff1681526020019081526020015f205f3373ffffffffffffffffffffffffffffffffffffffff1673ffffffffffffffffffffffffffffffffffffffff1681526020019081526020015f205490507fffffffffffffffffffffffffffffffffffffffffffffffffffffffffffffffff8114610dd0578281610d5391906130e1565b60045f8773ffffffffffffffffffffffffffffffffffffffff1673ffffffffffffffffffffffffffffffffffffffff1681526020019081526020015f205f3373ffffffffffffffffffffffffffffffffffffffff1673ffffffffffffffffffffffffffffffffffffffff1681526020019081526020015f20819055505b8260035f8773ffffffffffffffffffffffffffffffffffffffff1673ffffffffffffffffffffffffffffffffffffffff1681526020019081526020015f205f828254610e1c91906130e1565b925050819055508260035f8673ffffffffffffffffffffffffffffffffffffffff1673ffffffffffffffffffffffffffffffffffffffff1681526020019081526020015f205f82825401925050819055508373ffffffffffffffffffffffffffffffffffffffff168573ffffffffffffffffffffffffffffffffffffffff167fddf252ad1be2c89b69c2b068fc378daa952ba7f163c4a11628f55a4df523b3ef85604051610eca919061294f565b60405180910390a360019150509392505050565b60085f9054906101000a900473ffffffffffffffffffffffffffffffffffffffff1681565b5f8111610f45576040517f08c379a0000000000000000000000000000000000000000000000000000000008152600401610f3c9061315e565b60405180910390fd5b5f73ffffffffffffffffffffffffffffffffffffffff163373ffffffffffffffffffffffffffffffffffffffff1603610fb3576040517f08c379a0000000000000000000000000000000000000000000000000000000008152600401610faa906131c6565b60405180910390fd5b8060065f3373ffffffffffffffffffffffffffffffffffffffff1673ffffffffffffffffffffffffffffffffffffffff1681526020019081526020015f20541015611033576040517f08c379a000000000000000000000000000000000000000000000000000000000815260040161102a9061322e565b60405180910390fd5b5f61103d82610b37565b90507f000000000000000000000000000000000000000000000000000000000000000073ffffffffffffffffffffffffffffffffffffffff16632e1a7d4d826040518263ffffffff1660e01b8152600401611098919061294f565b5f604051808303815f87803b1580156110af575f80fd5b505af11580156110c1573d5f803e3d5ffd5b505050506110cf338261252a565b3373ffffffffffffffffffffffffffffffffffffffff166108fc8290811502906040515f60405180830381858888f19350505050158015611112573d5f803e3d5ffd5b508160065f3373ffffffffffffffffffffffffffffffffffffffff1673ffffffffffffffffffffffffffffffffffffffff1681526020019081526020015f205f82825461115f91906130e1565b925050819055505050565b7f000000000000000000000000000000000000000000000000000000000000000081565b5f7f000000000000000000000000000000000000000000000000000000000000000046146111c3576111be6125f5565b6111e5565b7f00000000000000000000000000000000000000000000000000000000000000005b905090565b7f000000000000000000000000000000000000000000000000000000000000000081565b6007602052805f5260405f205f915090505481565b5f7fffffffffffffffffffffffffffffffffffffffffffffffffffffffffffffffff9050919050565b5f7f000000000000000000000000000000000000000000000000000000000000000073ffffffffffffffffffffffffffffffffffffffff166370a08231836040518263ffffffff1660e01b81526004016112a69190612b9e565b602060405180830381865afa1580156112c1573d5f803e3d5ffd5b505050506040513d601f19601f820116820180604052508101906112e5919061302c565b9050919050565b5f6112f682610b37565b9050919050565b5f80611308846123e9565b9150810361134b576040517f08c379a000000000000000000000000000000000000000000000000000000000815260040161134290613296565b60405180910390fd5b6113983330857f000000000000000000000000000000000000000000000000000000000000000073ffffffffffffffffffffffffffffffffffffffff1661267f909392919063ffffffff16565b6113a28282612746565b8173ffffffffffffffffffffffffffffffffffffffff163373ffffffffffffffffffffffffffffffffffffffff167fdcbc1c05240f31ff3ad067ef1ee35ce4997762752e3a095284754544f4c709d785846040516114019291906132b4565b60405180910390a36114138382612811565b92915050565b6003602052805f5260405f205f915090505481565b6005602052805f5260405f205f915090505481565b7f000000000000000000000000000000000000000000000000000000000000000081565b6006602052805f5260405f205f915090505481565b5f61148683611a86565b90506114d53330837f000000000000000000000000000000000000000000000000000000000000000073ffffffffffffffffffffffffffffffffffffffff1661267f909392919063ffffffff16565b6114df8284612746565b8173ffffffffffffffffffffffffffffffffffffffff163373ffffffffffffffffffffffffffffffffffffffff167fdcbc1c05240f31ff3ad067ef1ee35ce4997762752e3a095284754544f4c709d7838660405161153e9291906132b4565b60405180910390a36115508184612811565b92915050565b6001805461156390613084565b80601f016020809104026020016040519081016040528092919081815260200182805461158f90613084565b80156115da5780601f106115b1576101008083540402835291602001916115da565b820191905f5260205f20905b8154815290600101906020018083116115bd57829003601f168201915b505050505081565b5f60085f9054906101000a900473ffffffffffffffffffffffffffffffffffffffff1673ffffffffffffffffffffffffffffffffffffffff16635ae6c513336040518263ffffffff1660e01b815260040161163d9190612b9e565b60e060405180830381865afa158015611658573d5f803e3d5ffd5b505050506040513d601f19601f8201168201806040525081019061167c9190613493565b9050806020015173ffffffffffffffffffffffffffffffffffffffff163373ffffffffffffffffffffffffffffffffffffffff16146116f0576040517f08c379a00000000000000000000000000000000000000000000000000000000081526004016116e790613508565b60405180910390fd5b8060a001513414611736576040517f08c379a000000000000000000000000000000000000000000000000000000000815260040161172d90613570565b60405180910390fd5b7f000000000000000000000000000000000000000000000000000000000000000073ffffffffffffffffffffffffffffffffffffffff16632e1a7d4d82606001516040518263ffffffff1660e01b8152600401611793919061294f565b5f604051808303815f87803b1580156117aa575f80fd5b505af11580156117bc573d5f803e3d5ffd5b505050503373ffffffffffffffffffffffffffffffffffffffff166108fc826060015190811502906040515f60405180830381858888f19350505050158015611807573d5f803e3d5ffd5b5050565b5f811161184d576040517f08c379a0000000000000000000000000000000000000000000000000000000008152600401611844906135d8565b60405180910390fd5b34811461188f576040517f08c379a000000000000000000000000000000000000000000000000000000000815260040161188690613640565b60405180910390fd5b5f611899826123e9565b90507f000000000000000000000000000000000000000000000000000000000000000073ffffffffffffffffffffffffffffffffffffffff1663d0e30db0836040518263ffffffff1660e01b81526004015f604051808303818588803b158015611901575f80fd5b505af1158015611913573d5f803e3d5ffd5b50505050506119223382612746565b8160065f3373ffffffffffffffffffffffffffffffffffffffff1673ffffffffffffffffffffffffffffffffffffffff1681526020019081526020015f205f82825461196e919061365e565b925050819055505050565b5f8160035f3373ffffffffffffffffffffffffffffffffffffffff1673ffffffffffffffffffffffffffffffffffffffff1681526020019081526020015f205f8282546119c691906130e1565b925050819055508160035f8573ffffffffffffffffffffffffffffffffffffffff1673ffffffffffffffffffffffffffffffffffffffff1681526020019081526020015f205f82825401925050819055508273ffffffffffffffffffffffffffffffffffffffff163373ffffffffffffffffffffffffffffffffffffffff167fddf252ad1be2c89b69c2b068fc378daa952ba7f163c4a11628f55a4df523b3ef84604051611a74919061294f565b60405180910390a36001905092915050565b5f8060025490505f8114611ab557611ab0611a9f610a0e565b82856124e19092919063ffffffff16565b611ab7565b825b915050919050565b5f611ac984610c5d565b90508173ffffffffffffffffffffffffffffffffffffffff163373ffffffffffffffffffffffffffffffffffffffff1614611c2c575f60045f8473ffffffffffffffffffffffffffffffffffffffff1673ffffffffffffffffffffffffffffffffffffffff1681526020019081526020015f205f3373ffffffffffffffffffffffffffffffffffffffff1673ffffffffffffffffffffffffffffffffffffffff1681526020019081526020015f205490507fffffffffffffffffffffffffffffffffffffffffffffffffffffffffffffffff8114611c2a578181611bad91906130e1565b60045f8573ffffffffffffffffffffffffffffffffffffffff1673ffffffffffffffffffffffffffffffffffffffff1681526020019081526020015f205f3373ffffffffffffffffffffffffffffffffffffffff1673ffffffffffffffffffffffffffffffffffffffff1681526020019081526020015f20819055505b505b611c368482612815565b611c40828261252a565b8173ffffffffffffffffffffffffffffffffffffffff168373ffffffffffffffffffffffffffffffffffffffff163373ffffffffffffffffffffffffffffffffffffffff167ffbde797d201c681b91056529119e0b02407c7bb96a4a2c75c01fc9667232c8db8785604051611cb69291906132b4565b60405180910390a4611d0983857f000000000000000000000000000000000000000000000000000000000000000073ffffffffffffffffffffffffffffffffffffffff166128199092919063ffffffff16565b9392505050565b5f8173ffffffffffffffffffffffffffffffffffffffff163373ffffffffffffffffffffffffffffffffffffffff1614611e72575f60045f8473ffffffffffffffffffffffffffffffffffffffff1673ffffffffffffffffffffffffffffffffffffffff1681526020019081526020015f205f3373ffffffffffffffffffffffffffffffffffffffff1673ffffffffffffffffffffffffffffffffffffffff1681526020019081526020015f205490507fffffffffffffffffffffffffffffffffffffffffffffffffffffffffffffffff8114611e70578481611df391906130e1565b60045f8573ffffffffffffffffffffffffffffffffffffffff1673ffffffffffffffffffffffffffffffffffffffff1681526020019081526020015f205f3373ffffffffffffffffffffffffffffffffffffffff1673ffffffffffffffffffffffffffffffffffffffff1681526020019081526020015f20819055505b505b5f611e7c856112ec565b91508103611ebf576040517f08c379a0000000000000000000000000000000000000000000000000000000008152600401611eb6906136db565b60405180910390fd5b611ec98185612815565b611ed3828561252a565b8173ffffffffffffffffffffffffffffffffffffffff168373ffffffffffffffffffffffffffffffffffffffff163373ffffffffffffffffffffffffffffffffffffffff167ffbde797d201c681b91056529119e0b02407c7bb96a4a2c75c01fc9667232c8db8488604051611f499291906132b4565b60405180910390a4611f9c83827f000000000000000000000000000000000000000000000000000000000000000073ffffffffffffffffffffffffffffffffffffffff166128199092919063ffffffff16565b9392505050565b5f7fffffffffffffffffffffffffffffffffffffffffffffffffffffffffffffffff9050919050565b5f8060025490505f8114611ffb57611ff681611fe6610a0e565b856124a09092919063ffffffff16565b611ffd565b825b915050919050565b8060085f6101000a81548173ffffffffffffffffffffffffffffffffffffffff021916908373ffffffffffffffffffffffffffffffffffffffff16021790555050565b5f61208f60035f8473ffffffffffffffffffffffffffffffffffffffff1673ffffffffffffffffffffffffffffffffffffffff1681526020019081526020015f2054610b37565b9050919050565b428410156120d9576040517f08c379a00000000000000000000000000000000000000000000000000000000081526004016120d090613743565b60405180910390fd5b5f60016120e461118e565b7f6e71edae12b1b97f4d1f60370fef10105fa2faae0126114a169c64845d6126c98a8a8a60055f8f73ffffffffffffffffffffffffffffffffffffffff1673ffffffffffffffffffffffffffffffffffffffff1681526020019081526020015f205f815480929190600101919050558b60405160200161216996959493929190613761565b60405160208183030381529060405280519060200120604051602001612190929190613834565b604051602081830303815290604052805190602001208585856040515f81526020016040526040516121c5949392919061386a565b6020604051602081039080840390855afa1580156121e5573d5f803e3d5ffd5b5050506020604051035190505f73ffffffffffffffffffffffffffffffffffffffff168173ffffffffffffffffffffffffffffffffffffffff161415801561225857508773ffffffffffffffffffffffffffffffffffffffff168173ffffffffffffffffffffffffffffffffffffffff16145b612297576040517f08c379a000000000000000000000000000000000000000000000000000000000815260040161228e906138f7565b60405180910390fd5b8560045f8373ffffffffffffffffffffffffffffffffffffffff1673ffffffffffffffffffffffffffffffffffffffff1681526020019081526020015f205f8973ffffffffffffffffffffffffffffffffffffffff1673ffffffffffffffffffffffffffffffffffffffff1681526020019081526020015f2081905550508573ffffffffffffffffffffffffffffffffffffffff168773ffffffffffffffffffffffffffffffffffffffff167f8c5be1e5ebec7d5bd14f71427d1e84f3dd0314c0f7b2291e5b200ac8c7c3b92587604051612372919061294f565b60405180910390a350505050505050565b5f60035f8373ffffffffffffffffffffffffffffffffffffffff1673ffffffffffffffffffffffffffffffffffffffff1681526020019081526020015f20549050919050565b6004602052815f5260405f20602052805f5260405f205f91509150505481565b5f6123f382611fcc565b9050919050565b6124026128c3565b60085f9054906101000a900473ffffffffffffffffffffffffffffffffffffffff1673ffffffffffffffffffffffffffffffffffffffff16635ae6c513336040518263ffffffff1660e01b815260040161245c9190612b9e565b60e060405180830381865afa158015612477573d5f803e3d5ffd5b505050506040513d601f19601f8201168201806040525081019061249b9190613493565b905090565b5f827fffffffffffffffffffffffffffffffffffffffffffffffffffffffffffffffff04841183021582026124d3575f80fd5b818385020490509392505050565b5f827fffffffffffffffffffffffffffffffffffffffffffffffffffffffffffffffff0484118302158202612514575f80fd5b81838502045f8385870206110190509392505050565b8060035f8473ffffffffffffffffffffffffffffffffffffffff1673ffffffffffffffffffffffffffffffffffffffff1681526020019081526020015f205f82825461257691906130e1565b925050819055508060025f82825403925050819055505f73ffffffffffffffffffffffffffffffffffffffff168273ffffffffffffffffffffffffffffffffffffffff167fddf252ad1be2c89b69c2b068fc378daa952ba7f163c4a11628f55a4df523b3ef836040516125e9919061294f565b60405180910390a35050565b5f7f8b73c3c69bb8fe3d512ecc4cf759cc79239f7b179b0ffacaa9a75d522b39400f5f60405161262591906139b1565b60405180910390207fc89efdaa54c0f20c7adf612882df0950f5a951637e0307cdcb4c672f298b8bc646306040516020016126649594939291906139c7565b60405160208183030381529060405280519060200120905090565b5f6040517f23b872dd00000000000000000000000000000000000000000000000000000000815273ffffffffffffffffffffffffffffffffffffffff8516600482015273ffffffffffffffffffffffffffffffffffffffff8416602482015282604482015260205f6064835f8a5af13d15601f3d1160015f51141617169150508061273f576040517f08c379a000000000000000000000000000000000000000000000000000000000815260040161273690613a62565b60405180910390fd5b5050505050565b8060025f828254612757919061365e565b925050819055508060035f8473ffffffffffffffffffffffffffffffffffffffff1673ffffffffffffffffffffffffffffffffffffffff1681526020019081526020015f205f82825401925050819055508173ffffffffffffffffffffffffffffffffffffffff165f73ffffffffffffffffffffffffffffffffffffffff167fddf252ad1be2c89b69c2b068fc378daa952ba7f163c4a11628f55a4df523b3ef83604051612805919061294f565b60405180910390a35050565b5050565b5050565b5f6040517fa9059cbb00000000000000000000000000000000000000000000000000000000815273ffffffffffffffffffffffffffffffffffffffff8416600482015282602482015260205f6044835f895af13d15601f3d1160015f5114161716915050806128bd576040517f08c379a00000000000000000000000000000000000000000000000000000000081526004016128b490613aca565b60405180910390fd5b50505050565b6040518060e001604052805f151581526020015f73ffffffffffffffffffffffffffffffffffffffff1681526020015f67ffffffffffffffff1681526020015f81526020015f67ffffffffffffffff1681526020015f81526020015f600281111561293157612930612f00565b5b81525090565b5f819050919050565b61294981612937565b82525050565b5f6020820190506129625f830184612940565b92915050565b5f81519050919050565b5f82825260208201905092915050565b5f5b8381101561299f578082015181840152602081019050612984565b5f8484015250505050565b5f601f19601f8301169050919050565b5f6129c482612968565b6129ce8185612972565b93506129de818560208601612982565b6129e7816129aa565b840191505092915050565b5f6020820190508181035f830152612a0a81846129ba565b905092915050565b5f604051905090565b5f80fd5b612a2881612937565b8114612a32575f80fd5b50565b5f81359050612a4381612a1f565b92915050565b5f60208284031215612a5e57612a5d612a1b565b5b5f612a6b84828501612a35565b91505092915050565b5f73ffffffffffffffffffffffffffffffffffffffff82169050919050565b5f612a9d82612a74565b9050919050565b612aad81612a93565b8114612ab7575f80fd5b50565b5f81359050612ac881612aa4565b92915050565b5f8060408385031215612ae457612ae3612a1b565b5b5f612af185828601612aba565b9250506020612b0285828601612a35565b9150509250929050565b5f8115159050919050565b612b2081612b0c565b82525050565b5f602082019050612b395f830184612b17565b92915050565b5f805f60608486031215612b5657612b55612a1b565b5b5f612b6386828701612aba565b9350506020612b7486828701612aba565b9250506040612b8586828701612a35565b9150509250925092565b612b9881612a93565b82525050565b5f602082019050612bb15f830184612b8f565b92915050565b5f60ff82169050919050565b612bcc81612bb7565b82525050565b5f602082019050612be55f830184612bc3565b92915050565b5f819050919050565b612bfd81612beb565b82525050565b5f602082019050612c165f830184612bf4565b92915050565b5f819050919050565b5f612c3f612c3a612c3584612a74565b612c1c565b612a74565b9050919050565b5f612c5082612c25565b9050919050565b5f612c6182612c46565b9050919050565b612c7181612c57565b82525050565b5f602082019050612c8a5f830184612c68565b92915050565b5f60208284031215612ca557612ca4612a1b565b5b5f612cb284828501612aba565b91505092915050565b5f8060408385031215612cd157612cd0612a1b565b5b5f612cde85828601612a35565b9250506020612cef85828601612aba565b9150509250929050565b5f612d0382612c46565b9050919050565b612d1381612cf9565b82525050565b5f602082019050612d2c5f830184612d0a565b92915050565b5f805f60608486031215612d4957612d48612a1b565b5b5f612d5686828701612a35565b9350506020612d6786828701612aba565b9250506040612d7886828701612aba565b9150509250925092565b612d8b81612bb7565b8114612d95575f80fd5b50565b5f81359050612da681612d82565b92915050565b612db581612beb565b8114612dbf575f80fd5b50565b5f81359050612dd081612dac565b92915050565b5f805f805f805f60e0888a031215612df157612df0612a1b565b5b5f612dfe8a828b01612aba565b9750506020612e0f8a828b01612aba565b9650506040612e208a828b01612a35565b9550506060612e318a828b01612a35565b9450506080612e428a828b01612d98565b93505060a0612e538a828b01612dc2565b92505060c0612e648a828b01612dc2565b91505092959891949750929550565b5f8060408385031215612e8957612e88612a1b565b5b5f612e9685828601612aba565b9250506020612ea785828601612aba565b9150509250929050565b612eba81612b0c565b82525050565b612ec981612a93565b82525050565b5f67ffffffffffffffff82169050919050565b612eeb81612ecf565b82525050565b612efa81612937565b82525050565b7f4e487b71000000000000000000000000000000000000000000000000000000005f52602160045260245ffd5b60038110612f3e57612f3d612f00565b5b50565b5f819050612f4e82612f2d565b919050565b5f612f5d82612f41565b9050919050565b612f6d81612f53565b82525050565b60e082015f820151612f875f850182612eb1565b506020820151612f9a6020850182612ec0565b506040820151612fad6040850182612ee2565b506060820151612fc06060850182612ef1565b506080820151612fd36080850182612ee2565b5060a0820151612fe660a0850182612ef1565b5060c0820151612ff960c0850182612f64565b50505050565b5f60e0820190506130125f830184612f73565b92915050565b5f8151905061302681612a1f565b92915050565b5f6020828403121561304157613040612a1b565b5b5f61304e84828501613018565b91505092915050565b7f4e487b71000000000000000000000000000000000000000000000000000000005f52602260045260245ffd5b5f600282049050600182168061309b57607f821691505b6020821081036130ae576130ad613057565b5b50919050565b7f4e487b71000000000000000000000000000000000000000000000000000000005f52601160045260245ffd5b5f6130eb82612937565b91506130f683612937565b925082820390508181111561310e5761310d6130b4565b5b92915050565b7f536861726573206d7573742062652067726561746572207468616e207a65726f5f82015250565b5f613148602083612972565b915061315382613114565b602082019050919050565b5f6020820190508181035f8301526131758161313c565b9050919050565b7f43616e6e6f7420776974686472617720746f207a65726f2061646472657373005f82015250565b5f6131b0601f83612972565b91506131bb8261317c565b602082019050919050565b5f6020820190508181035f8301526131dd816131a4565b9050919050565b7f496e73756666696369656e7420736861726573000000000000000000000000005f82015250565b5f613218601383612972565b9150613223826131e4565b602082019050919050565b5f6020820190508181035f8301526132458161320c565b9050919050565b7f5a45524f5f5348415245530000000000000000000000000000000000000000005f82015250565b5f613280600b83612972565b915061328b8261324c565b602082019050919050565b5f6020820190508181035f8301526132ad81613274565b9050919050565b5f6040820190506132c75f830185612940565b6132d46020830184612940565b9392505050565b5f80fd5b7f4e487b71000000000000000000000000000000000000000000000000000000005f52604160045260245ffd5b613315826129aa565b810181811067ffffffffffffffff82111715613334576133336132df565b5b80604052505050565b5f613346612a12565b9050613352828261330c565b919050565b61336081612b0c565b811461336a575f80fd5b50565b5f8151905061337b81613357565b92915050565b5f8151905061338f81612aa4565b92915050565b61339e81612ecf565b81146133a8575f80fd5b50565b5f815190506133b981613395565b92915050565b600381106133cb575f80fd5b50565b5f815190506133dc816133bf565b92915050565b5f60e082840312156133f7576133f66132db565b5b61340160e061333d565b90505f6134108482850161336d565b5f83015250602061342384828501613381565b6020830152506040613437848285016133ab565b604083015250606061344b84828501613018565b606083015250608061345f848285016133ab565b60808301525060a061347384828501613018565b60a08301525060c0613487848285016133ce565b60c08301525092915050565b5f60e082840312156134a8576134a7612a1b565b5b5f6134b5848285016133e2565b91505092915050565b7f6d757374206265207468652073616d65206d696e6572000000000000000000005f82015250565b5f6134f2601683612972565b91506134fd826134be565b602082019050919050565b5f6020820190508181035f83015261351f816134e6565b9050919050565b7f53656e642074686520636f6c6c61746572616c20616d6f756e740000000000005f82015250565b5f61355a601a83612972565b915061356582613526565b602082019050919050565b5f6020820190508181035f8301526135878161354e565b9050919050565b7f4465706f736974206c657373207468616e205a65726f000000000000000000005f82015250565b5f6135c2601683612972565b91506135cd8261358e565b602082019050919050565b5f6020820190508181035f8301526135ef816135b6565b9050919050565b7f53656e64207468652073616d6520616d6f756e740000000000000000000000005f82015250565b5f61362a601483612972565b9150613635826135f6565b602082019050919050565b5f6020820190508181035f8301526136578161361e565b9050919050565b5f61366882612937565b915061367383612937565b925082820190508082111561368b5761368a6130b4565b5b92915050565b7f5a45524f5f4153534554530000000000000000000000000000000000000000005f82015250565b5f6136c5600b83612972565b91506136d082613691565b602082019050919050565b5f6020820190508181035f8301526136f2816136b9565b9050919050565b7f5045524d49545f444541444c494e455f455850495245440000000000000000005f82015250565b5f61372d601783612972565b9150613738826136f9565b602082019050919050565b5f6020820190508181035f83015261375a81613721565b9050919050565b5f60c0820190506137745f830189612bf4565b6137816020830188612b8f565b61378e6040830187612b8f565b61379b6060830186612940565b6137a86080830185612940565b6137b560a0830184612940565b979650505050505050565b5f81905092915050565b7f19010000000000000000000000000000000000000000000000000000000000005f82015250565b5f6137fe6002836137c0565b9150613809826137ca565b600282019050919050565b5f819050919050565b61382e61382982612beb565b613814565b82525050565b5f61383e826137f2565b915061384a828561381d565b60208201915061385a828461381d565b6020820191508190509392505050565b5f60808201905061387d5f830187612bf4565b61388a6020830186612bc3565b6138976040830185612bf4565b6138a46060830184612bf4565b95945050505050565b7f494e56414c49445f5349474e45520000000000000000000000000000000000005f82015250565b5f6138e1600e83612972565b91506138ec826138ad565b602082019050919050565b5f6020820190508181035f83015261390e816138d5565b9050919050565b5f81905092915050565b5f819050815f5260205f209050919050565b5f815461393d81613084565b6139478186613915565b9450600182165f81146139615760018114613976576139a8565b60ff19831686528115158202860193506139a8565b61397f8561391f565b5f5b838110156139a057815481890152600182019150602081019050613981565b838801955050505b50505092915050565b5f6139bc8284613931565b915081905092915050565b5f60a0820190506139da5f830188612bf4565b6139e76020830187612bf4565b6139f46040830186612bf4565b613a016060830185612940565b613a0e6080830184612b8f565b9695505050505050565b7f5452414e534645525f46524f4d5f4641494c45440000000000000000000000005f82015250565b5f613a4c601483612972565b9150613a5782613a18565b602082019050919050565b5f6020820190508181035f830152613a7981613a40565b9050919050565b7f5452414e534645525f4641494c454400000000000000000000000000000000005f82015250565b5f613ab4600f83612972565b9150613abf82613a80565b602082019050919050565b5f6020820190508181035f830152613ae181613aa8565b905091905056fea26469706673582212204107464371efb47f4573252ba65f3fdb18949a5c203fa70c6d75853cc50c250b64736f6c63430008170033",
  "immutableReferences": {
    "9131": [
      {
        "length": 32,
        "start": 2577
      },
      {
        "length": 32,
        "start": 4588
      },
      {
        "length": 32,
        "start": 4687
      },
      {
        "length": 32,
        "start": 4947
      },
      {
        "length": 32,
        "start": 5264
      },
      {
        "length": 32,
        "start": 7365
      },
      {
        "length": 32,
        "start": 8024
      }
    ],
    "9650": [
      {
        "length": 32,
        "start": 4161
      },
      {
        "length": 32,
        "start": 5189
      },
      {
        "length": 32,
        "start": 5944
      },
      {
        "length": 32,
        "start": 6301
      }
    ],
    "10319": [
      {
        "length": 32,
        "start": 4460
      }
    ],
    "10333": [
      {
        "length": 32,
        "start": 4497
      }
    ],
    "10335": [
      {
        "length": 32,
        "start": 4549
      }
    ]
  },
  "source": "//SPDX-License-Identifier: MIT\r\npragma solidity ^0.8.19;\r\n\r\nimport \"@openzeppelin/contracts/token/ERC20/IERC20.sol\";\r\nimport \"./ERC4626.sol\";\r\nimport \"@zondax/filecoin-solidity/contracts/v0.8/SendAPI.sol\";\r\nimport \"./SPstruct.sol\";\r\n\r\ninterface IWFIL is IERC20 {\r\n    function deposit() external payable;\r\n\r\n    function withdraw(uint256) external;\r\n}\r\n\r\ninterface IStorageProvider {\r\n    function getStorageProvider(address _miner)\r\n        external\r\n        view\r\n        returns (SPstruct.StorageProvider memory);\r\n}\r\n\r\ncontract Pool is ERC4626 {\r\n    // a mapping that checks if a user has deposited the token\r\n    mapping(address => uint256) public staker;\r\n    mapping(address => uint256) public collateralStore;\r\n    address public StorageProviderContract;\r\n    IWFIL public immutable wfil;\r\n\r\n    constructor(\r\n        IWFIL _wfil,\r\n        string memory _name,\r\n        string memory _symbol\r\n    ) ERC4626(ERC20(address(_wfil)), _name, _symbol) {\r\n        wfil = _wfil;\r\n    }\r\n\r\n    function setStorageProvider(address StorageProvider) public {\r\n        StorageProviderContract = StorageProvider;\r\n    }\r\n\r\n    /**\r\n     * @notice function to deposit assets and receive vault tokens in exchange\r\n     * @param _assets amount of the asset token\r\n     */\r\n\r\n    function stake(uint256 _assets) public payable {\r\n        // checks that the deposited amount is greater than zero.\r\n        require(_assets > 0, \"Deposit less than Zero\");\r\n        require(_assets == msg.value, \"Send the same amount\");\r\n        // calling the deposit function from the ERC-4626 library to perform all the necessary functionality\r\n        uint256 shares = previewDeposit(_assets);\r\n        IWFIL(wfil).deposit{value: _assets}();\r\n        _mint(msg.sender, shares);\r\n        // Increase the share of the user\r\n        staker[msg.sender] += _assets;\r\n    }\r\n\r\n    /**\r\n     * @notice Function to allow msg.sender to withdraw their deposit plus accrued interest\r\n     * @param _shares amount of shares the user wants to convert\r\n     */\r\n    function unstake(uint256 _shares) public {\r\n        // Validate input\r\n        require(_shares > 0, \"Shares must be greater than zero\");\r\n        require(msg.sender != address(0), \"Cannot withdraw to zero address\");\r\n        require(staker[msg.sender] >= _shares, \"Insufficient shares\");\r\n        // Redeem the shares for the underlying assets\r\n        uint256 assets = convertToAssets(_shares);\r\n        IWFIL(wfil).withdraw(assets);\r\n        _burn(msg.sender, assets);\r\n        // This will transfer the equivalent amount of assets to the receiver\r\n        payable(msg.sender).transfer(assets);\r\n        // Update the staker's share balance\r\n        staker[msg.sender] -= _shares;\r\n    }\r\n\r\n    // returns total number of assets\r\n    function totalAssets() public view override returns (uint256) {\r\n        return asset.balanceOf(address(this));\r\n    }\r\n\r\n    // returns total balance of user\r\n    function totalAssetsOfUser(address _user) public view returns (uint256) {\r\n        return asset.balanceOf(_user);\r\n    }\r\n    function getDetails() public view returns(SPstruct.StorageProvider memory){\r\n        return IStorageProvider(StorageProviderContract).getStorageProvider(msg.sender);\r\n    }\r\n\r\n    function lend() public payable {\r\n        SPstruct.StorageProvider memory miner = IStorageProvider(\r\n            StorageProviderContract\r\n        ).getStorageProvider(msg.sender);\r\n        \r\n        require(msg.sender == miner.ethAddress, \"must be the same miner\");\r\n        require(msg.value == miner.collateral, \"Send the collateral amount\");\r\n        IWFIL(wfil).withdraw(miner.currentLoan);\r\n        payable(msg.sender).transfer(miner.currentLoan);\r\n    }\r\n    function native() public view returns(uint256){\r\n        return address(this).balance;\r\n    }\r\n\r\n    receive() external payable virtual {}\r\n}\r\n",
  "sourcePath": "D:\\Dev\\0Ethindia\\truffle\\contracts\\Pool.sol",
  "compiler": {
    "name": "solc",
    "version": "0.8.23+commit.f704f362.Emscripten.clang"
  },
  "schemaVersion": "3.4.8",
  "updatedAt": "2023-12-09T09:39:34.953Z",
  "devdoc": {
    "kind": "dev",
    "methods": {
      "stake(uint256)": {
        "params": {
          "_assets": "amount of the asset token"
        }
      },
      "unstake(uint256)": {
        "params": {
          "_shares": "amount of shares the user wants to convert"
        }
      }
    },
    "version": 1
  },
  "userdoc": {
    "kind": "user",
    "methods": {
      "stake(uint256)": {
        "notice": "function to deposit assets and receive vault tokens in exchange"
      },
      "unstake(uint256)": {
        "notice": "Function to allow msg.sender to withdraw their deposit plus accrued interest"
      }
    },
    "version": 1
  }
}