{
  "contractName": "StorageProviderContract",
  "abi": [
    {
      "inputs": [],
      "stateMutability": "nonpayable",
      "type": "constructor"
    },
    {
      "inputs": [],
      "name": "ActorNotFound",
      "type": "error"
    },
    {
      "inputs": [],
      "name": "FailToCallActor",
      "type": "error"
    },
    {
      "inputs": [],
      "name": "FailToCallActor",
      "type": "error"
    },
    {
      "inputs": [
        {
          "internalType": "CommonTypes.FilActorId",
          "name": "actorId",
          "type": "uint64"
        }
      ],
      "name": "InvalidActorID",
      "type": "error"
    },
    {
      "inputs": [],
      "name": "InvalidAddress",
      "type": "error"
    },
    {
      "inputs": [
        {
          "internalType": "uint64",
          "name": "",
          "type": "uint64"
        }
      ],
      "name": "InvalidCodec",
      "type": "error"
    },
    {
      "inputs": [],
      "name": "InvalidResponseLength",
      "type": "error"
    },
    {
      "inputs": [
        {
          "internalType": "uint256",
          "name": "balance",
          "type": "uint256"
        },
        {
          "internalType": "uint256",
          "name": "value",
          "type": "uint256"
        }
      ],
      "name": "NotEnoughBalance",
      "type": "error"
    },
    {
      "inputs": [],
      "name": "Owner",
      "outputs": [
        {
          "internalType": "address",
          "name": "",
          "type": "address"
        }
      ],
      "stateMutability": "view",
      "type": "function"
    },
    {
      "inputs": [
        {
          "internalType": "address",
          "name": "",
          "type": "address"
        }
      ],
      "name": "SPstore",
      "outputs": [
        {
          "internalType": "bool",
          "name": "isRegistered",
          "type": "bool"
        },
        {
          "internalType": "address",
          "name": "ethAddress",
          "type": "address"
        },
        {
          "internalType": "uint64",
          "name": "actorid",
          "type": "uint64"
        },
        {
          "internalType": "uint256",
          "name": "currentLoan",
          "type": "uint256"
        },
        {
          "internalType": "uint64",
          "name": "reputation_score",
          "type": "uint64"
        },
        {
          "internalType": "uint256",
          "name": "collateral",
          "type": "uint256"
        },
        {
          "internalType": "enum SPstruct.Status",
          "name": "status",
          "type": "uint8"
        }
      ],
      "stateMutability": "view",
      "type": "function"
    },
    {
      "inputs": [
        {
          "internalType": "uint256",
          "name": "",
          "type": "uint256"
        }
      ],
      "name": "SPstoreArray",
      "outputs": [
        {
          "internalType": "address",
          "name": "",
          "type": "address"
        }
      ],
      "stateMutability": "view",
      "type": "function"
    },
    {
      "inputs": [
        {
          "internalType": "uint256",
          "name": "",
          "type": "uint256"
        }
      ],
      "name": "actorStore",
      "outputs": [
        {
          "internalType": "uint256",
          "name": "",
          "type": "uint256"
        }
      ],
      "stateMutability": "view",
      "type": "function"
    },
    {
      "inputs": [],
      "name": "counter",
      "outputs": [
        {
          "internalType": "uint256",
          "name": "",
          "type": "uint256"
        }
      ],
      "stateMutability": "view",
      "type": "function"
    },
    {
      "inputs": [],
      "name": "owner",
      "outputs": [
        {
          "internalType": "address",
          "name": "",
          "type": "address"
        }
      ],
      "stateMutability": "view",
      "type": "function"
    },
    {
      "inputs": [],
      "name": "poolAdress",
      "outputs": [
        {
          "internalType": "address",
          "name": "",
          "type": "address"
        }
      ],
      "stateMutability": "view",
      "type": "function"
    },
    {
      "inputs": [
        {
          "internalType": "address",
          "name": "_newadmin",
          "type": "address"
        }
      ],
      "name": "addAdmin",
      "outputs": [],
      "stateMutability": "nonpayable",
      "type": "function"
    },
    {
      "inputs": [],
      "name": "register",
      "outputs": [],
      "stateMutability": "nonpayable",
      "type": "function"
    },
    {
      "inputs": [
        {
          "internalType": "uint64",
          "name": "minerId",
          "type": "uint64"
        },
        {
          "internalType": "uint64",
          "name": "beneficiaryActorId",
          "type": "uint64"
        },
        {
          "internalType": "uint256",
          "name": "quota",
          "type": "uint256"
        },
        {
          "internalType": "int64",
          "name": "expiration",
          "type": "int64"
        }
      ],
      "name": "changeBeneficiary",
      "outputs": [],
      "stateMutability": "nonpayable",
      "type": "function"
    },
    {
      "inputs": [
        {
          "internalType": "uint256",
          "name": "requestLoanAmt",
          "type": "uint256"
        }
      ],
      "name": "request",
      "outputs": [],
      "stateMutability": "nonpayable",
      "type": "function"
    },
    {
      "inputs": [
        {
          "internalType": "address",
          "name": "minerAddress",
          "type": "address"
        }
      ],
      "name": "getIDfromETH",
      "outputs": [
        {
          "internalType": "uint64",
          "name": "",
          "type": "uint64"
        }
      ],
      "stateMutability": "view",
      "type": "function"
    },
    {
      "inputs": [
        {
          "components": [
            {
              "internalType": "bytes",
              "name": "data",
              "type": "bytes"
            }
          ],
          "internalType": "struct CommonTypes.FilAddress",
          "name": "addr",
          "type": "tuple"
        }
      ],
      "name": "getIDfromFIL",
      "outputs": [
        {
          "internalType": "uint64",
          "name": "",
          "type": "uint64"
        }
      ],
      "stateMutability": "view",
      "type": "function"
    },
    {
      "inputs": [
        {
          "internalType": "uint64",
          "name": "miner_id",
          "type": "uint64"
        }
      ],
      "name": "getBenef",
      "outputs": [
        {
          "internalType": "int256",
          "name": "",
          "type": "int256"
        },
        {
          "components": [
            {
              "components": [
                {
                  "components": [
                    {
                      "internalType": "bytes",
                      "name": "data",
                      "type": "bytes"
                    }
                  ],
                  "internalType": "struct CommonTypes.FilAddress",
                  "name": "beneficiary",
                  "type": "tuple"
                },
                {
                  "components": [
                    {
                      "components": [
                        {
                          "internalType": "bytes",
                          "name": "val",
                          "type": "bytes"
                        },
                        {
                          "internalType": "bool",
                          "name": "neg",
                          "type": "bool"
                        }
                      ],
                      "internalType": "struct CommonTypes.BigInt",
                      "name": "quota",
                      "type": "tuple"
                    },
                    {
                      "components": [
                        {
                          "internalType": "bytes",
                          "name": "val",
                          "type": "bytes"
                        },
                        {
                          "internalType": "bool",
                          "name": "neg",
                          "type": "bool"
                        }
                      ],
                      "internalType": "struct CommonTypes.BigInt",
                      "name": "used_quota",
                      "type": "tuple"
                    },
                    {
                      "internalType": "CommonTypes.ChainEpoch",
                      "name": "expiration",
                      "type": "int64"
                    }
                  ],
                  "internalType": "struct MinerTypes.BeneficiaryTerm",
                  "name": "term",
                  "type": "tuple"
                }
              ],
              "internalType": "struct MinerTypes.ActiveBeneficiary",
              "name": "active",
              "type": "tuple"
            },
            {
              "components": [
                {
                  "components": [
                    {
                      "internalType": "bytes",
                      "name": "data",
                      "type": "bytes"
                    }
                  ],
                  "internalType": "struct CommonTypes.FilAddress",
                  "name": "new_beneficiary",
                  "type": "tuple"
                },
                {
                  "components": [
                    {
                      "internalType": "bytes",
                      "name": "val",
                      "type": "bytes"
                    },
                    {
                      "internalType": "bool",
                      "name": "neg",
                      "type": "bool"
                    }
                  ],
                  "internalType": "struct CommonTypes.BigInt",
                  "name": "new_quota",
                  "type": "tuple"
                },
                {
                  "internalType": "CommonTypes.ChainEpoch",
                  "name": "new_expiration",
                  "type": "int64"
                },
                {
                  "internalType": "bool",
                  "name": "approved_by_beneficiary",
                  "type": "bool"
                },
                {
                  "internalType": "bool",
                  "name": "approved_by_nominee",
                  "type": "bool"
                }
              ],
              "internalType": "struct MinerTypes.PendingBeneficiaryChange",
              "name": "proposed",
              "type": "tuple"
            }
          ],
          "internalType": "struct MinerTypes.GetBeneficiaryReturn",
          "name": "",
          "type": "tuple"
        }
      ],
      "stateMutability": "view",
      "type": "function"
    },
    {
      "inputs": [
        {
          "internalType": "bytes",
          "name": "data",
          "type": "bytes"
        }
      ],
      "name": "getFILAddress",
      "outputs": [
        {
          "components": [
            {
              "internalType": "bytes",
              "name": "data",
              "type": "bytes"
            }
          ],
          "internalType": "struct CommonTypes.FilAddress",
          "name": "",
          "type": "tuple"
        }
      ],
      "stateMutability": "pure",
      "type": "function"
    },
    {
      "inputs": [
        {
          "internalType": "uint64",
          "name": "score",
          "type": "uint64"
        },
        {
          "internalType": "address",
          "name": "miner",
          "type": "address"
        },
        {
          "internalType": "uint256",
          "name": "collateral",
          "type": "uint256"
        }
      ],
      "name": "setParams",
      "outputs": [],
      "stateMutability": "nonpayable",
      "type": "function"
    },
    {
      "inputs": [
        {
          "internalType": "address",
          "name": "_miner",
          "type": "address"
        }
      ],
      "name": "getStorageProvider",
      "outputs": [
        {
          "components": [
            {
              "internalType": "bool",
              "name": "isRegistered",
              "type": "bool"
            },
            {
              "internalType": "address",
              "name": "ethAddress",
              "type": "address"
            },
            {
              "internalType": "uint64",
              "name": "actorid",
              "type": "uint64"
            },
            {
              "internalType": "uint256",
              "name": "currentLoan",
              "type": "uint256"
            },
            {
              "internalType": "uint64",
              "name": "reputation_score",
              "type": "uint64"
            },
            {
              "internalType": "uint256",
              "name": "collateral",
              "type": "uint256"
            },
            {
              "internalType": "enum SPstruct.Status",
              "name": "status",
              "type": "uint8"
            }
          ],
          "internalType": "struct SPstruct.StorageProvider",
          "name": "",
          "type": "tuple"
        }
      ],
      "stateMutability": "view",
      "type": "function"
    }
  ],
  "bytecode": "0x608060405234801561000f575f80fd5b503360015f6101000a81548173ffffffffffffffffffffffffffffffffffffffff021916908373ffffffffffffffffffffffffffffffffffffffff1602179055506149d08061005d5f395ff3fe608060405234801561000f575f80fd5b5060043610610109575f3560e01c80638af5ca92116100a0578063b4a99a4e1161006f578063b4a99a4e146102c8578063c00a98dd146102e6578063d26518eb14610316578063d845a4b314610334578063edf7d8701461035057610109565b80638af5ca92146102425780638da5cb5b1461025e5780639b4bdbb31461027c5780639c634bee146102ac57610109565b806361bc221a116100dc57806361bc221a146101a75780636f4219f3146101c557806370480275146101f65780637e0d2e0d1461021257610109565b806310f23fa41461010d5780631aa3a0081461013d578063294d18d7146101475780635ae6c51314610177575b5f80fd5b61012760048036038101906101229190613513565b610386565b604051610134919061357c565b60405180910390f35b610145610397565b005b610161600480360381019061015c9190613595565b6106b5565b60405161016e919061367d565b60405180910390f35b610191600480360381019061018c91906136f7565b6106cd565b60405161019e9190613871565b60405180910390f35b6101af610842565b6040516101bc9190613899565b60405180910390f35b6101df60048036038101906101da91906138dc565b610848565b6040516101ed929190613b15565b60405180910390f35b610210600480360381019061020b91906136f7565b610868565b005b61022c600480360381019061022791906136f7565b61094f565b604051610239919061357c565b60405180910390f35b61025c60048036038101906102579190613b6d565b610960565b005b610266610b5f565b6040516102739190613bcc565b60405180910390f35b61029660048036038101906102919190613be5565b610b84565b6040516102a39190613bcc565b60405180910390f35b6102c660048036038101906102c19190613c3a565b610bbf565b005b6102d0610c0c565b6040516102dd9190613bcc565b60405180910390f35b61030060048036038101906102fb9190613be5565b610c31565b60405161030d9190613899565b60405180910390f35b61031e610c46565b60405161032b9190613bcc565b60405180910390f35b61034e60048036038101906103499190613be5565b610c69565b005b61036a600480360381019061036591906136f7565b610d18565b60405161037d9796959493929190613cbc565b60405180910390f35b5f61039082610db3565b9050919050565b5f151560025f3373ffffffffffffffffffffffffffffffffffffffff1673ffffffffffffffffffffffffffffffffffffffff1681526020019081526020015f205f015f9054906101000a900460ff16151514610428576040517f08c379a000000000000000000000000000000000000000000000000000000000815260040161041f90613d83565b60405180910390fd5b5f61043233610e8d565b905061043c61317b565b6001815f01901515908115158152505033816020019073ffffffffffffffffffffffffffffffffffffffff16908173ffffffffffffffffffffffffffffffffffffffff168152505081816040019067ffffffffffffffff16908167ffffffffffffffff168152505060028160c0019060028111156104bd576104bc613772565b5b908160028111156104d1576104d0613772565b5b815250508060025f3373ffffffffffffffffffffffffffffffffffffffff1673ffffffffffffffffffffffffffffffffffffffff1681526020019081526020015f205f820151815f015f6101000a81548160ff0219169083151502179055506020820151815f0160016101000a81548173ffffffffffffffffffffffffffffffffffffffff021916908373ffffffffffffffffffffffffffffffffffffffff1602179055506040820151815f0160156101000a81548167ffffffffffffffff021916908367ffffffffffffffff160217905550606082015181600101556080820151816002015f6101000a81548167ffffffffffffffff021916908367ffffffffffffffff16021790555060a0820151816003015560c0820151816004015f6101000a81548160ff021916908360028111156106105761060f613772565b5b02179055509050508167ffffffffffffffff1660045f60065481526020019081526020015f2081905550600333908060018154018082558091505060019003905f5260205f20015f9091909190916101000a81548173ffffffffffffffffffffffffffffffffffffffff021916908373ffffffffffffffffffffffffffffffffffffffff16021790555060065f8154809291906106ac90613dce565b91905055505050565b6106bd6131ef565b6106c682610f88565b9050919050565b6106d561317b565b60025f8373ffffffffffffffffffffffffffffffffffffffff1673ffffffffffffffffffffffffffffffffffffffff1681526020019081526020015f206040518060e00160405290815f82015f9054906101000a900460ff161515151581526020015f820160019054906101000a900473ffffffffffffffffffffffffffffffffffffffff1673ffffffffffffffffffffffffffffffffffffffff1673ffffffffffffffffffffffffffffffffffffffff1681526020015f820160159054906101000a900467ffffffffffffffff1667ffffffffffffffff1667ffffffffffffffff16815260200160018201548152602001600282015f9054906101000a900467ffffffffffffffff1667ffffffffffffffff1667ffffffffffffffff16815260200160038201548152602001600482015f9054906101000a900460ff16600281111561082557610824613772565b5b600281111561083757610836613772565b5b815250509050919050565b60065481565b5f610851613202565b5f83905061085e81610fea565b9250925050915091565b60075f9054906101000a900473ffffffffffffffffffffffffffffffffffffffff1673ffffffffffffffffffffffffffffffffffffffff163373ffffffffffffffffffffffffffffffffffffffff16146108f7576040517f08c379a00000000000000000000000000000000000000000000000000000000081526004016108ee90613e5f565b60405180910390fd5b600160055f8373ffffffffffffffffffffffffffffffffffffffff1673ffffffffffffffffffffffffffffffffffffffff1681526020019081526020015f205f6101000a81548160ff02191690831515021790555050565b5f61095982610e8d565b9050919050565b6001151560055f3373ffffffffffffffffffffffffffffffffffffffff1673ffffffffffffffffffffffffffffffffffffffff1681526020019081526020015f205f9054906101000a900460ff1615151480610a08575060015f9054906101000a900473ffffffffffffffffffffffffffffffffffffffff1673ffffffffffffffffffffffffffffffffffffffff163373ffffffffffffffffffffffffffffffffffffffff16145b610a47576040517f08c379a0000000000000000000000000000000000000000000000000000000008152600401610a3e90613e5f565b60405180910390fd5b8260025f8473ffffffffffffffffffffffffffffffffffffffff1673ffffffffffffffffffffffffffffffffffffffff1681526020019081526020015f206002015f6101000a81548167ffffffffffffffff021916908367ffffffffffffffff1602179055508060025f8473ffffffffffffffffffffffffffffffffffffffff1673ffffffffffffffffffffffffffffffffffffffff1681526020019081526020015f2060030181905550600160025f8473ffffffffffffffffffffffffffffffffffffffff1673ffffffffffffffffffffffffffffffffffffffff1681526020019081526020015f206004015f6101000a81548160ff02191690836002811115610b5557610b54613772565b5b0217905550505050565b60075f9054906101000a900473ffffffffffffffffffffffffffffffffffffffff1681565b60038181548110610b93575f80fd5b905f5260205f20015f915054906101000a900473ffffffffffffffffffffffffffffffffffffffff1681565b610bc7613228565b610bd08461108e565b815f0181905250610be0836110db565b816020018190525081816040019060070b908160070b81525050610c048582611116565b505050505050565b60015f9054906101000a900473ffffffffffffffffffffffffffffffffffffffff1681565b6004602052805f5260405f205f915090505481565b5f8054906101000a900473ffffffffffffffffffffffffffffffffffffffff1681565b5f60025f3373ffffffffffffffffffffffffffffffffffffffff1673ffffffffffffffffffffffffffffffffffffffff1681526020019081526020015f206004015f6101000a81548160ff02191690836002811115610ccb57610cca613772565b5b02179055508060025f3373ffffffffffffffffffffffffffffffffffffffff1673ffffffffffffffffffffffffffffffffffffffff1681526020019081526020015f206001018190555050565b6002602052805f5260405f205f91509050805f015f9054906101000a900460ff1690805f0160019054906101000a900473ffffffffffffffffffffffffffffffffffffffff1690805f0160159054906101000a900467ffffffffffffffff1690806001015490806002015f9054906101000a900467ffffffffffffffff1690806003015490806004015f9054906101000a900460ff16905087565b5f805f73fe0000000000000000000000000000000000000173ffffffffffffffffffffffffffffffffffffffff16845f0151604051610df29190613eb7565b5f60405180830381855afa9150503d805f8114610e2a576040519150601f19603f3d011682016040523d82523d5f602084013e610e2f565b606091505b509150915081610e6b576040517f8a7db5bf00000000000000000000000000000000000000000000000000000000815260040160405180910390fd5b5f81806020019051810190610e809190613ee1565b9050809350505050919050565b5f8082604051602001610ea09190613fa5565b60405160208183030381529060405290505f8073fe0000000000000000000000000000000000000173ffffffffffffffffffffffffffffffffffffffff1683604051610eec9190613eb7565b5f60405180830381855afa9150503d805f8114610f24576040519150601f19603f3d011682016040523d82523d5f602084013e610f29565b606091505b509150915081610f65576040517f8a7db5bf00000000000000000000000000000000000000000000000000000000815260040160405180910390fd5b5f81806020019051810190610f7a9190613ee1565b905080945050505050919050565b610f906131ef565b5f6040518060200160405280848152509050610fab81611182565b610fe1576040517fe6c4247b00000000000000000000000000000000000000000000000000000000815260040160405180910390fd5b80915050919050565b5f610ff3613202565b5f8067ffffffffffffffff81111561100e5761100d61338e565b5b6040519080825280601f01601f1916602001820160405280156110405781602001600182028036833780820191505090505b5090505f806110558663f7e4e2995f86611357565b915091505f8203611076575f61106a826113c3565b94509450505050611089565b61107e613202565b828195509550505050505b915091565b6110966131ef565b5f6110a0836117a3565b90506040518060200160405280825f01516040516020016110c19190613ff4565b604051602081830303815290604052815250915050919050565b6110e3613257565b5f6110ee835f611819565b90506040518060400160405280825f0151815260200182602001511515815250915050919050565b5f8061112183611853565b90505f8061113886635d9dfc2c6051865f8061193f565b915091505f815114611176576040517f0e74990700000000000000000000000000000000000000000000000000000000815260040160405180910390fd5b81935050505092915050565b5f8060f81b825f01515f8151811061119d5761119c614015565b5b602001015160f81c60f81b7effffffffffffffffffffffffffffffffffffffffffffffffffffffffffffff1916036111df57600a825f01515111159050611352565b600160f81b825f01515f815181106111fa576111f9614015565b5b602001015160f81c60f81b7effffffffffffffffffffffffffffffffffffffffffffffffffffffffffffff191614806112785750600260f81b825f01515f8151811061124957611248614015565b5b602001015160f81c60f81b7effffffffffffffffffffffffffffffffffffffffffffffffffffffffffffff1916145b1561128c576015825f015151149050611352565b600360f81b825f01515f815181106112a7576112a6614015565b5b602001015160f81c60f81b7effffffffffffffffffffffffffffffffffffffffffffffffffffffffffffff1916036112e8576031825f015151149050611352565b600460f81b825f01515f8151811061130357611302614015565b5b602001015160f81c60f81b7effffffffffffffffffffffffffffffffffffffffffffffffffffffffffffff191603611345576040825f01515111159050611352565b610100825f015151111590505b919050565b5f606060648667ffffffffffffffff1610156113aa57856040517fa29282730000000000000000000000000000000000000000000000000000000081526004016113a19190614072565b60405180910390fd5b6113b6868686866119af565b9150915094509492505050565b6113cb613202565b60605f806113e282866119e290919063ffffffff16565b8093508192505050600281146113fb576113fa61408b565b5b61140e82866119e290919063ffffffff16565b8093508192505050600281146114275761142661408b565b5b61143a8286611a6190919063ffffffff16565b855f01515f01515f01819450829052505061145e82866119e290919063ffffffff16565b8093508192505050600381146114775761147661408b565b5b61148a8286611a6190919063ffffffff16565b80935081945050505f835111156114b7576114a483611c31565b845f0151602001515f0181905250611529565b60405180604001604052805f67ffffffffffffffff8111156114dc576114db61338e565b5b6040519080825280601f01601f19166020018201604052801561150e5781602001600182028036833780820191505090505b5081526020015f1515815250845f0151602001515f01819052505b61153c8286611a6190919063ffffffff16565b80935081945050505f8351111561156a5761155683611c31565b845f015160200151602001819052506115dd565b60405180604001604052805f67ffffffffffffffff81111561158f5761158e61338e565b5b6040519080825280601f01601f1916602001820160405280156115c15781602001600182028036833780820191505090505b5081526020015f1515815250845f015160200151602001819052505b6115f08286611dca90919063ffffffff16565b855f0151602001516040018194508260070b60070b815250505061161d8286611df690919063ffffffff16565b61179b5761163482866119e290919063ffffffff16565b80935081925050506005811461164d5761164c61408b565b5b6116608286611a6190919063ffffffff16565b85602001515f01515f0181945082905250506116858286611a6190919063ffffffff16565b80935081945050505f835111156116b05761169f83611c31565b846020015160200181905250611720565b60405180604001604052805f67ffffffffffffffff8111156116d5576116d461338e565b5b6040519080825280601f01601f1916602001820160405280156117075781602001600182028036833780820191505090505b5081526020015f15158152508460200151602001819052505b6117338286611dca90919063ffffffff16565b85602001516040018194508260070b60070b815250505061175d8286611e6190919063ffffffff16565b8560200151606001819450821515151581525050506117858286611e6190919063ffffffff16565b8560200151608001819450821515151581525050505b505050919050565b6117ab613272565b5b600115611813575f607f8316905060078367ffffffffffffffff16901c92505f8367ffffffffffffffff16036117f6576117ef8183611f0990919063ffffffff16565b5050611814565b61180c6080821783611f0990919063ffffffff16565b50506117ac565b5b919050565b61182161328b565b61184b8360405160200161183591906140d8565b604051602081830303815290604052835f611f70565b905092915050565b60605f806118648460200151612037565b90506118706003612194565b8261187b91906140f2565b915061188c845f01515f01516121e7565b8261189791906140f2565b91506118a2816121e7565b826118ad91906140f2565b91506118bc8460400151612205565b826118c791906140f2565b91505f6118d383612276565b90506118e960038261229b90919063ffffffff16565b611902855f01515f0151826122ab90919063ffffffff16565b61191582826122ab90919063ffffffff16565b61192c8560400151826122d390919063ffffffff16565b611935816122ea565b9350505050919050565b5f606060648867ffffffffffffffff16101561199257876040517fa29282730000000000000000000000000000000000000000000000000000000081526004016119899190614072565b60405180910390fd5b6119a0888888888888612340565b91509150965096945050505050565b5f60606132ac6132ac61234090508091506119d3888888885f60018863ffffffff16565b93509350505094509492505050565b5f805f806119f08686612465565b8167ffffffffffffffff169150809750819350829450505050600460ff168260ff1614611a52576040517f08c379a0000000000000000000000000000000000000000000000000000000008152600401611a499061416f565b60405180910390fd5b80859350935050509250929050565b60605f805f611a708686612465565b8167ffffffffffffffff169150809750819350829450505050600660ff168260ff161480611aa45750600260ff168260ff16145b611ae3576040517f08c379a0000000000000000000000000000000000000000000000000000000008152600401611ada906141fd565b60405180910390fd5b600660ff168260ff1603611b2c57611afb8686612465565b8167ffffffffffffffff169150809750819350829450505050600260ff168260ff1614611b2b57611b2a61408b565b5b5b5f8186611b3991906140f2565b90505f8267ffffffffffffffff811115611b5657611b5561338e565b5b6040519080825280601f01601f191660200182016040528015611b885781602001600182028036833780820191505090505b5090505f808890505b83811015611c1357898181518110611bac57611bab614015565b5b602001015160f81c60f81b838381518110611bca57611bc9614015565b5b60200101907effffffffffffffffffffffffffffffffffffffffffffffffffffffffffffff191690815f1a9053508180611c0390613dce565b9250508080600101915050611b91565b50818489611c2191906140f2565b9650965050505050509250929050565b611c39613257565b5f825103611c745760405180604001604052806040518060400160405280600181526020015f81525081526020015f15158152509050611dc5565b5f60018351611c83919061421b565b67ffffffffffffffff811115611c9c57611c9b61338e565b5b6040519080825280601f01601f191660200182016040528015611cce5781602001600182028036833780820191505090505b5090505f600160f81b845f81518110611cea57611ce9614015565b5b602001015160f81c60f81b7effffffffffffffffffffffffffffffffffffffffffffffffffffffffffffff191603611d2157600190505b5f600190505b8451811015611da857848181518110611d4357611d42614015565b5b602001015160f81c60f81b83600183611d5c919061421b565b81518110611d6d57611d6c614015565b5b60200101907effffffffffffffffffffffffffffffffffffffffffffffffffffffffffffff191690815f1a9053508080600101915050611d27565b506040518060400160405280838152602001821515815250925050505b919050565b5f805f611de0848661264f90919063ffffffff16565b8095508192505050808492509250509250929050565b5f7ff600000000000000000000000000000000000000000000000000000000000000838381518110611e2b57611e2a614015565b5b602001015160f81c60f81b7effffffffffffffffffffffffffffffffffffffffffffffffffffffffffffff191614905092915050565b5f805f80611e6f8686612465565b8167ffffffffffffffff169150809750819350829450505050600760ff168260ff1614611ed1576040517f08c379a0000000000000000000000000000000000000000000000000000000008152600401611ec890614298565b60405180910390fd5b601560ff16811480611ee65750601460ff1681145b611ef357611ef261408b565b5b601460ff16811415859350935050509250929050565b611f11613272565b5f835f01515190505f600182611f2791906140f2565b905084602001518210611f4b57611f4a85600283611f4591906142b6565b6126de565b5b84516020838201018581538151831115611f63578282525b5050849250505092915050565b611f7861328b565b6020840184515f595f602084061460018114611fa857602084066020036020818401019350808501835250611fb2565b6020820192508382525b508282848660046101c2fa506020815101810160405280515b5f6020821403611ffc575f60208301511460018114611fea5750611ffc565b60208301925050602081039050611fcb565b80825281865287602087015250505050505f821461201a5781612027565b612026815f0151612700565b5b8160400181815250509392505050565b60605f6001835f01515161204b91906140f2565b67ffffffffffffffff8111156120645761206361338e565b5b6040519080825280601f01601f1916602001820160405280156120965781602001600182028036833780820191505090505b5090506001151583602001511515146120b2575f60f81b6120b8565b600160f81b5b815f815181106120cb576120ca614015565b5b60200101907effffffffffffffffffffffffffffffffffffffffffffffffffffffffffffff191690815f1a9053505f600190505f5b845f01515181101561218957845f0151818151811061212257612121614015565b5b602001015160f81c60f81b8383815181106121405761213f614015565b5b60200101907effffffffffffffffffffffffffffffffffffffffffffffffffffffffffffff191690815f1a905350818061217990613dce565b9250508080600101915050612100565b508192505050919050565b5f601782116121a657600190506121e2565b60ff82116121b757600290506121e2565b61ffff82116121c957600390506121e2565b63ffffffff82116121dd57600590506121e2565b600990505b919050565b5f81516121f48351612194565b6121fe91906140f2565b9050919050565b5f808290505f8160070b1261222f576122278167ffffffffffffffff16612194565b915050612271565b61226d817fffffffffffffffffffffffffffffffffffffffffffffffffffffffffffffffff61225e91906142f7565b67ffffffffffffffff16612194565b9150505b919050565b61227e6132b6565b61228b815f01518361273d565b505f816020018181525050919050565b6122a7826004836127b3565b5050565b6122b882600283516127c3565b6122ce81835f015161296390919063ffffffff16565b505050565b6122e6818361297f90919063ffffffff16565b5050565b60605f826020015114612332576040517f08c379a0000000000000000000000000000000000000000000000000000000008152600401612329906143a0565b60405180910390fd5b815f01515f01519050919050565b5f606061236173fe00000000000000000000000000000000000005856129d5565b5f8073fe0000000000000000000000000000000000000573ffffffffffffffffffffffffffffffffffffffff1689878761239b575f61239e565b60015b8b8b8f6040516020016123b696959493929190614406565b6040516020818303038152906040526040516123d29190613eb7565b5f60405180830381855af49150503d805f811461240a576040519150601f19603f3d011682016040523d82523d5f602084013e61240f565b606091505b50915091508161244b576040517f8a7db5bf00000000000000000000000000000000000000000000000000000000815260040160405180910390fd5b61245481612a69565b935093505050965096945050505050565b5f805f806124738686612baa565b905060018561248291906140f2565b94505f600560e0831660ff16901c90505f601f83169050601c8160ff16106124df576040517f08c379a00000000000000000000000000000000000000000000000000000000081526004016124d6906144dc565b60405180910390fd5b60188160ff161015612502578181888160ff169150955095509550505050612648565b60188160ff1603612588575f6125188989612baa565b905060018861252791906140f2565b975060188160ff161015612570576040517f08c379a000000000000000000000000000000000000000000000000000000000815260040161256790614544565b60405180910390fd5b8281898160ff16915096509650965050505050612648565b60198160ff16036125c8575f61259e8989612c24565b90506002886125ad91906140f2565b97508281898161ffff16915096509650965050505050612648565b601a8160ff160361260a575f6125de8989612c8c565b90506004886125ed91906140f2565b97508281898163ffffffff16915096509650965050505050612648565b601b8160ff161461261e5761261d61408b565b5b5f6126298989612cf4565b905060088861263891906140f2565b9750828189965096509650505050505b9250925092565b5f805f8061265d8686612465565b8167ffffffffffffffff169150809750819350829450505050600160ff168260ff16148061269057505f60ff168260ff16145b6126cf576040517f08c379a00000000000000000000000000000000000000000000000000000000081526004016126c6906145d2565b60405180910390fd5b80859350935050509250929050565b5f825f015190506126ef838361273d565b506126fa8382612963565b50505050565b5f61270a82612d5c565b15612717575f9050612738565b5f6020830151905061272881612dae565b9150600860208451030282019150505b919050565b612745613272565b5f602083612753919061461d565b1461277f57602082612765919061461d565b6020612771919061421b565b8261277c91906140f2565b91505b818360200181815250506040518084525f8152828101602001818110156127a4575f80fd5b80604052505082905092915050565b6127be8383836127c3565b505050565b60178167ffffffffffffffff16116127fd576127f78160058460ff16901b60ff1617845f0151611f0990919063ffffffff16565b5061295e565b60ff8167ffffffffffffffff16116128595761282f601860058460ff16901b17845f0151611f0990919063ffffffff16565b506128538167ffffffffffffffff166001855f01516130019092919063ffffffff16565b5061295d565b61ffff8167ffffffffffffffff16116128b65761288c601960058460ff16901b17845f0151611f0990919063ffffffff16565b506128b08167ffffffffffffffff166002855f01516130019092919063ffffffff16565b5061295c565b63ffffffff8167ffffffffffffffff1611612915576128eb601a60058460ff16901b17845f0151611f0990919063ffffffff16565b5061290f8167ffffffffffffffff166004855f01516130019092919063ffffffff16565b5061295b565b612935601b60058460ff16901b17845f0151611f0990919063ffffffff16565b506129598167ffffffffffffffff166008855f01516130019092919063ffffffff16565b505b5b5b5b505050565b61296b613272565b6129778383845161308a565b905092915050565b5f8160070b1261299957612994825f836127c3565b6129d1565b6129d0826001837fffffffffffffffffffffffffffffffffffffffffffffffffffffffffffffffff6129cb91906142f7565b6127c3565b5b5050565b5f47905081811015612a205780826040517f8f0f4206000000000000000000000000000000000000000000000000000000008152600401612a1792919061464d565b60405180910390fd5b5f612a2a84613167565b905080612a63576040517f64d954b000000000000000000000000000000000000000000000000000000000815260040160405180910390fd5b50505050565b5f60605f805f85806020019051810190612a839190614720565b9250925092505f67ffffffffffffffff168267ffffffffffffffff1603612ae3575f815114612ade576040517f0e74990700000000000000000000000000000000000000000000000000000000815260040160405180910390fd5b612b9c565b605167ffffffffffffffff168267ffffffffffffffff161480612b1a5750607167ffffffffffffffff168267ffffffffffffffff16145b15612b5e575f815103612b59576040517f0e74990700000000000000000000000000000000000000000000000000000000815260040160405180910390fd5b612b9b565b816040517ff1f6bced000000000000000000000000000000000000000000000000000000008152600401612b92919061357c565b60405180910390fd5b5b828194509450505050915091565b5f600182612bb891906140f2565b83511015612bfb576040517f08c379a0000000000000000000000000000000000000000000000000000000008152600401612bf2906147d6565b60405180910390fd5b828281518110612c0e57612c0d614015565b5b602001015160f81c60f81b60f81c905092915050565b5f600282612c3291906140f2565b83511015612c75576040517f08c379a0000000000000000000000000000000000000000000000000000000008152600401612c6c906147d6565b60405180910390fd5b5f8260200184015190508060f01c91505092915050565b5f600482612c9a91906140f2565b83511015612cdd576040517f08c379a0000000000000000000000000000000000000000000000000000000008152600401612cd4906147d6565b60405180910390fd5b5f8260200184015190508060e01c91505092915050565b5f600882612d0291906140f2565b83511015612d45576040517f08c379a0000000000000000000000000000000000000000000000000000000008152600401612d3c906147d6565b60405180910390fd5b5f8260200184015190508060c01c91505092915050565b5f805f6020840190505f5b8451811015612da157815192505f831115612d87575f9350505050612da9565b602082019150602081612d9a91906140f2565b9050612d67565b506001925050505b919050565b5f80821460018114612ff7578260018403935060028404841793506004840484179350601084048417935061010084048417935062010000840484179350640100000000840484179350680100000000000000008404841793507001000000000000000000000000000000008404841793506001840193506040517ff8f9cbfae6cc78fbefe7cdc3a1793dfcf4f0e8bbd8cec470b6a28a7a5a3e1efd81527ff5ecf1b3e9debc68e1d9cfabc5997135bfb7a7a3938b7b606b5b4b3f2f1f0ffe60208201527ff6e4ed9ff2d6b458eadcdf97bd91692de2d4da8fd2d0ac50c6ae9a827252361660408201527fc8c0b887b0a8a4489c948c7f847c6125746c645c544c444038302820181008ff60608201527ff7cae577eec2a03cf3bad76fb589591debb2dd67e0aa9834bea6925f6a4a2e0e60808201527fe39ed557db96902cd38ed14fad815115c786af479b7e8324736353433727170760a08201527fc976c13bb96e881cb166a933a55e490d9d56952b8d4e801485467d236242260660c08201527f753a6d1b65325d0c552a4d1345224105391a310b29122104190a11030902010060e082015261010081016040527e818283848586878898a8b8c8d8e8f929395969799a9b9d9e9faaeb6bedeeff7f01000000000000000000000000000000000000000000000000000000000000008082880204818160ff038501510496507f8000000000000000000000000000000000000000000000000000000000000000851161010002870196505f60018603861603612fed576001870196505b5050505050612ffb565b5f91505b50919050565b613009613272565b5f845f01515190505f818461301e91906140f2565b90508560200151811115613043576130428660028361303d91906142b6565b6126de565b5b5f6001856101006130549190614923565b61305e919061421b565b90508651828101878319825116178152815184111561307b578382525b50508693505050509392505050565b613092613272565b825182111561309f575f80fd5b5f845f01515190505f83826130b491906140f2565b905085602001518111156130d9576130d8866002836130d391906142b6565b6126de565b5b5f80875180518560208301019350808511156130f3578482525b60208901925050505b6020861061313a578051825260208261311591906140f2565b915060208161312491906140f2565b9050602086613133919061421b565b95506130fc565b5f6001876020036101000a0390508019825116818451168181178552505050879450505050509392505050565b5f80823f90505f801b811415915050919050565b6040518060e001604052805f151581526020015f73ffffffffffffffffffffffffffffffffffffffff1681526020015f67ffffffffffffffff1681526020015f81526020015f67ffffffffffffffff1681526020015f81526020015f60028111156131e9576131e8613772565b5b81525090565b6040518060200160405280606081525090565b60405180604001604052806132156132d5565b81526020016132226132fb565b81525090565b604051806060016040528061323b6131ef565b8152602001613248613257565b81526020015f60070b81525090565b6040518060400160405280606081526020015f151581525090565b6040518060400160405280606081526020015f81525090565b6040518060600160405280606081526020015f151581526020015f81525090565b6132b461496d565b565b60405180604001604052806132c9613272565b81526020015f81525090565b60405180604001604052806132e86131ef565b81526020016132f561333a565b81525090565b6040518060a0016040528061330e6131ef565b815260200161331b613257565b81526020015f60070b81526020015f151581526020015f151581525090565b604051806060016040528061334d613257565b815260200161335a613257565b81526020015f60070b81525090565b5f604051905090565b5f80fd5b5f80fd5b5f80fd5b5f601f19601f8301169050919050565b7f4e487b71000000000000000000000000000000000000000000000000000000005f52604160045260245ffd5b6133c48261337e565b810181811067ffffffffffffffff821117156133e3576133e261338e565b5b80604052505050565b5f6133f5613369565b905061340182826133bb565b919050565b5f80fd5b5f80fd5b5f80fd5b5f67ffffffffffffffff82111561342c5761342b61338e565b5b6134358261337e565b9050602081019050919050565b828183375f83830152505050565b5f61346261345d84613412565b6133ec565b90508281526020810184848401111561347e5761347d61340e565b5b613489848285613442565b509392505050565b5f82601f8301126134a5576134a461340a565b5b81356134b5848260208601613450565b91505092915050565b5f602082840312156134d3576134d261337a565b5b6134dd60206133ec565b90505f82013567ffffffffffffffff8111156134fc576134fb613406565b5b61350884828501613491565b5f8301525092915050565b5f6020828403121561352857613527613372565b5b5f82013567ffffffffffffffff81111561354557613544613376565b5b613551848285016134be565b91505092915050565b5f67ffffffffffffffff82169050919050565b6135768161355a565b82525050565b5f60208201905061358f5f83018461356d565b92915050565b5f602082840312156135aa576135a9613372565b5b5f82013567ffffffffffffffff8111156135c7576135c6613376565b5b6135d384828501613491565b91505092915050565b5f81519050919050565b5f82825260208201905092915050565b5f5b838110156136135780820151818401526020810190506135f8565b5f8484015250505050565b5f613628826135dc565b61363281856135e6565b93506136428185602086016135f6565b61364b8161337e565b840191505092915050565b5f602083015f8301518482035f860152613670828261361e565b9150508091505092915050565b5f6020820190508181035f8301526136958184613656565b905092915050565b5f73ffffffffffffffffffffffffffffffffffffffff82169050919050565b5f6136c68261369d565b9050919050565b6136d6816136bc565b81146136e0575f80fd5b50565b5f813590506136f1816136cd565b92915050565b5f6020828403121561370c5761370b613372565b5b5f613719848285016136e3565b91505092915050565b5f8115159050919050565b61373681613722565b82525050565b613745816136bc565b82525050565b6137548161355a565b82525050565b5f819050919050565b61376c8161375a565b82525050565b7f4e487b71000000000000000000000000000000000000000000000000000000005f52602160045260245ffd5b600381106137b0576137af613772565b5b50565b5f8190506137c08261379f565b919050565b5f6137cf826137b3565b9050919050565b6137df816137c5565b82525050565b60e082015f8201516137f95f85018261372d565b50602082015161380c602085018261373c565b50604082015161381f604085018261374b565b5060608201516138326060850182613763565b506080820151613845608085018261374b565b5060a082015161385860a0850182613763565b5060c082015161386b60c08501826137d6565b50505050565b5f60e0820190506138845f8301846137e5565b92915050565b6138938161375a565b82525050565b5f6020820190506138ac5f83018461388a565b92915050565b6138bb8161355a565b81146138c5575f80fd5b50565b5f813590506138d6816138b2565b92915050565b5f602082840312156138f1576138f0613372565b5b5f6138fe848285016138c8565b91505092915050565b5f819050919050565b61391981613907565b82525050565b5f602083015f8301518482035f860152613939828261361e565b9150508091505092915050565b5f604083015f8301518482035f860152613960828261361e565b9150506020830151613975602086018261372d565b508091505092915050565b5f8160070b9050919050565b5f819050919050565b5f6139af6139aa6139a584613980565b61398c565b613980565b9050919050565b6139bf81613995565b82525050565b5f606083015f8301518482035f8601526139df8282613946565b915050602083015184820360208601526139f98282613946565b9150506040830151613a0e60408601826139b6565b508091505092915050565b5f604083015f8301518482035f860152613a33828261391f565b91505060208301518482036020860152613a4d82826139c5565b9150508091505092915050565b5f60a083015f8301518482035f860152613a74828261391f565b91505060208301518482036020860152613a8e8282613946565b9150506040830151613aa360408601826139b6565b506060830151613ab6606086018261372d565b506080830151613ac9608086018261372d565b508091505092915050565b5f604083015f8301518482035f860152613aee8282613a19565b91505060208301518482036020860152613b088282613a5a565b9150508091505092915050565b5f604082019050613b285f830185613910565b8181036020830152613b3a8184613ad4565b90509392505050565b613b4c8161375a565b8114613b56575f80fd5b50565b5f81359050613b6781613b43565b92915050565b5f805f60608486031215613b8457613b83613372565b5b5f613b91868287016138c8565b9350506020613ba2868287016136e3565b9250506040613bb386828701613b59565b9150509250925092565b613bc6816136bc565b82525050565b5f602082019050613bdf5f830184613bbd565b92915050565b5f60208284031215613bfa57613bf9613372565b5b5f613c0784828501613b59565b91505092915050565b613c1981613980565b8114613c23575f80fd5b50565b5f81359050613c3481613c10565b92915050565b5f805f8060808587031215613c5257613c51613372565b5b5f613c5f878288016138c8565b9450506020613c70878288016138c8565b9350506040613c8187828801613b59565b9250506060613c9287828801613c26565b91505092959194509250565b613ca781613722565b82525050565b613cb6816137c5565b82525050565b5f60e082019050613ccf5f83018a613c9e565b613cdc6020830189613bbd565b613ce9604083018861356d565b613cf6606083018761388a565b613d03608083018661356d565b613d1060a083018561388a565b613d1d60c0830184613cad565b98975050505050505050565b5f82825260208201905092915050565b7f416c7265616479207265676973746572656400000000000000000000000000005f82015250565b5f613d6d601283613d29565b9150613d7882613d39565b602082019050919050565b5f6020820190508181035f830152613d9a81613d61565b9050919050565b7f4e487b71000000000000000000000000000000000000000000000000000000005f52601160045260245ffd5b5f613dd88261375a565b91507fffffffffffffffffffffffffffffffffffffffffffffffffffffffffffffffff8203613e0a57613e09613da1565b5b600182019050919050565b7f4f6e6c792061646d696e000000000000000000000000000000000000000000005f82015250565b5f613e49600a83613d29565b9150613e5482613e15565b602082019050919050565b5f6020820190508181035f830152613e7681613e3d565b9050919050565b5f81905092915050565b5f613e91826135dc565b613e9b8185613e7d565b9350613eab8185602086016135f6565b80840191505092915050565b5f613ec28284613e87565b915081905092915050565b5f81519050613edb81613b43565b92915050565b5f60208284031215613ef657613ef5613372565b5b5f613f0384828501613ecd565b91505092915050565b5f81905092915050565b7f040a0000000000000000000000000000000000000000000000000000000000005f82015250565b5f613f4a600283613f0c565b9150613f5582613f16565b600282019050919050565b5f8160601b9050919050565b5f613f7682613f60565b9050919050565b5f613f8782613f6c565b9050919050565b613f9f613f9a826136bc565b613f7d565b82525050565b5f613faf82613f3e565b9150613fbb8284613f8e565b60148201915081905092915050565b5f8082015250565b5f613fde600183613f0c565b9150613fe982613fca565b600182019050919050565b5f613ffe82613fd2565b915061400a8284613e87565b915081905092915050565b7f4e487b71000000000000000000000000000000000000000000000000000000005f52603260045260245ffd5b5f61405c6140576140528461355a565b61398c565b61355a565b9050919050565b61406c81614042565b82525050565b5f6020820190506140855f830184614063565b92915050565b7f4e487b71000000000000000000000000000000000000000000000000000000005f52600160045260245ffd5b5f819050919050565b6140d26140cd8261375a565b6140b8565b82525050565b5f6140e382846140c1565b60208201915081905092915050565b5f6140fc8261375a565b91506141078361375a565b925082820190508082111561411f5761411e613da1565b5b92915050565b7f696e76616c6964206d616a20286578706563746564204d616a417272617929005f82015250565b5f614159601f83613d29565b915061416482614125565b602082019050919050565b5f6020820190508181035f8301526141868161414d565b9050919050565b7f696e76616c6964206d616a20286578706563746564204d616a546167206f72205f8201527f4d616a42797465537472696e6729000000000000000000000000000000000000602082015250565b5f6141e7602e83613d29565b91506141f28261418d565b604082019050919050565b5f6020820190508181035f830152614214816141db565b9050919050565b5f6142258261375a565b91506142308361375a565b925082820390508181111561424857614247613da1565b5b92915050565b7f696e76616c6964206d616a20286578706563746564204d616a4f7468657229005f82015250565b5f614282601f83613d29565b915061428d8261424e565b602082019050919050565b5f6020820190508181035f8301526142af81614276565b9050919050565b5f6142c08261375a565b91506142cb8361375a565b92508282026142d98161375a565b915082820484148315176142f0576142ef613da1565b5b5092915050565b5f61430182613980565b915061430c83613980565b92508282039050677fffffffffffffff81137fffffffffffffffffffffffffffffffffffffffffffffffff8000000000000000821217156143505761434f613da1565b5b92915050565b7f496e76616c69642043424f5200000000000000000000000000000000000000005f82015250565b5f61438a600c83613d29565b915061439582614356565b602082019050919050565b5f6020820190508181035f8301526143b78161437e565b9050919050565b5f82825260208201905092915050565b5f6143d8826135dc565b6143e281856143be565b93506143f28185602086016135f6565b6143fb8161337e565b840191505092915050565b5f60c0820190506144195f83018961356d565b614426602083018861388a565b614433604083018761356d565b614440606083018661356d565b818103608083015261445281856143ce565b905061446160a0830184614063565b979650505050505050565b7f63616e6e6f742068616e646c65206865616465727320776974682065787472615f8201527f203e203237000000000000000000000000000000000000000000000000000000602082015250565b5f6144c6602583613d29565b91506144d18261446c565b604082019050919050565b5f6020820190508181035f8301526144f3816144ba565b9050919050565b7f696e76616c69642063626f7200000000000000000000000000000000000000005f82015250565b5f61452e600c83613d29565b9150614539826144fa565b602082019050919050565b5f6020820190508181035f83015261455b81614522565b9050919050565b7f696e76616c6964206d616a20286578706563746564204d616a5369676e6564495f8201527f6e74206f72204d616a556e7369676e6564496e74290000000000000000000000602082015250565b5f6145bc603583613d29565b91506145c782614562565b604082019050919050565b5f6020820190508181035f8301526145e9816145b0565b9050919050565b7f4e487b71000000000000000000000000000000000000000000000000000000005f52601260045260245ffd5b5f6146278261375a565b91506146328361375a565b925082614642576146416145f0565b5b828206905092915050565b5f6040820190506146605f83018561388a565b61466d602083018461388a565b9392505050565b61467d81613907565b8114614687575f80fd5b50565b5f8151905061469881614674565b92915050565b5f815190506146ac816138b2565b92915050565b5f6146c46146bf84613412565b6133ec565b9050828152602081018484840111156146e0576146df61340e565b5b6146eb8482856135f6565b509392505050565b5f82601f8301126147075761470661340a565b5b81516147178482602086016146b2565b91505092915050565b5f805f6060848603121561473757614736613372565b5b5f6147448682870161468a565b93505060206147558682870161469e565b925050604084015167ffffffffffffffff81111561477657614775613376565b5b614782868287016146f3565b9150509250925092565b7f736c6963696e67206f7574206f662072616e67650000000000000000000000005f82015250565b5f6147c0601483613d29565b91506147cb8261478c565b602082019050919050565b5f6020820190508181035f8301526147ed816147b4565b9050919050565b5f8160011c9050919050565b5f808291508390505b60018511156148495780860481111561482557614824613da1565b5b60018516156148345780820291505b8081029050614842856147f4565b9450614809565b94509492505050565b5f82614861576001905061491c565b8161486e575f905061491c565b8160018114614884576002811461488e576148bd565b600191505061491c565b60ff8411156148a05761489f613da1565b5b8360020a9150848211156148b7576148b6613da1565b5b5061491c565b5060208310610133831016604e8410600b84101617156148f25782820a9050838111156148ed576148ec613da1565b5b61491c565b6148ff8484846001614800565b9250905081840481111561491657614915613da1565b5b81810290505b9392505050565b5f61492d8261375a565b91506149388361375a565b92506149657fffffffffffffffffffffffffffffffffffffffffffffffffffffffffffffffff8484614852565b905092915050565b7f4e487b71000000000000000000000000000000000000000000000000000000005f52605160045260245ffdfea26469706673582212204a306a8ecc6317b1effed3d3eb3fb261c7c259c5f5620b178090792db301f03164736f6c63430008170033",
  "immutableReferences": {},
  "source": "// SPDX-License-Identifier: MIT\npragma solidity ^0.8.0;\nimport \"@zondax/filecoin-solidity/contracts/v0.8/types/CommonTypes.sol\";\nimport \"@zondax/filecoin-solidity/contracts/v0.8/MinerAPI.sol\";\nimport \"@zondax/filecoin-solidity/contracts/v0.8/types/MinerTypes.sol\";\nimport \"@zondax/filecoin-solidity/contracts/v0.8/cbor/BigIntCbor.sol\";\nimport \"@zondax/filecoin-solidity/contracts/v0.8/PrecompilesAPI.sol\";\nimport \"@zondax/filecoin-solidity/contracts/v0.8/utils/BigInts.sol\";\nimport \"@zondax/filecoin-solidity/contracts/v0.8/utils/FilAddresses.sol\";\nimport \"@openzeppelin/contracts/token/ERC20/ERC20.sol\";\nimport \"./SPstruct.sol\";\n\ncontract StorageProviderContract {\n    //Struct to hold storage provider details\n    address public poolAdress;\n    address public Owner;\n    mapping(address => SPstruct.StorageProvider) public SPstore;\n    address[] public SPstoreArray;\n    mapping(uint256 => uint256) public actorStore;\n    mapping(address => bool) adminWhitelist;\n    uint256 public counter;\n    address public owner;\n    constructor(){\n        Owner = msg.sender;\n    }\n    function addAdmin(address _newadmin) public {\n        require(msg.sender == owner,\"Only admin\");\n        adminWhitelist[_newadmin] = true;\n    }\n    function register() public {\n        require(\n            SPstore[msg.sender].isRegistered == false,\n            \"Already registered\"\n        );\n        uint64 actor_id = PrecompilesAPI.resolveEthAddress(msg.sender);\n        SPstruct.StorageProvider memory sp;\n        sp.isRegistered = true;\n        sp.ethAddress = msg.sender;\n        sp.actorid = actor_id;\n        sp.status = SPstruct.Status.notApproved;\n        SPstore[msg.sender] = sp;\n        actorStore[counter] = actor_id;\n        SPstoreArray.push(msg.sender);\n        counter++;\n    }\n    function changeBeneficiary(\n        uint64 minerId,\n        uint64 beneficiaryActorId,\n        uint256 quota,\n        int64 expiration\n    ) public {\n        MinerTypes.ChangeBeneficiaryParams memory params;\n        params.new_beneficiary = FilAddresses.fromActorID(beneficiaryActorId);\n        params.new_quota = BigInts.fromUint256(quota);\n        params.new_expiration = CommonTypes.ChainEpoch.wrap(expiration);\n        MinerAPI.changeBeneficiary(\n            CommonTypes.FilActorId.wrap(minerId),\n            params\n        );\n\n    }\n    function request(uint256 requestLoanAmt) public {\n        SPstore[msg.sender].status = SPstruct.Status.requested;\n        SPstore[msg.sender].currentLoan = requestLoanAmt;\n\n    }\n\n    function getIDfromETH(address minerAddress) public view returns (uint64) {\n        return PrecompilesAPI.resolveEthAddress(minerAddress);\n    }\n\n    function getIDfromFIL(CommonTypes.FilAddress memory addr)\n        public\n        view\n        returns (uint64)\n    {\n        return PrecompilesAPI.resolveAddress(addr);\n    }\n\n    function getBenef(uint64 miner_id)\n        public\n        view\n        returns (int256, MinerTypes.GetBeneficiaryReturn memory)\n    {\n        CommonTypes.FilActorId actorId = CommonTypes.FilActorId.wrap(miner_id);\n        return MinerAPI.getBeneficiary(actorId);\n    }\n\n    function getFILAddress(bytes memory data)\n        public\n        pure\n        returns (CommonTypes.FilAddress memory)\n    {\n        return FilAddresses.fromBytes(data);\n    }\n\n    function setParams(\n        uint64 score,\n        address miner,\n        uint256 collateral\n    ) public {\n        require(adminWhitelist[msg.sender]==true||msg.sender==Owner,\"Only admin\");\n        SPstore[miner].reputation_score = score;\n        SPstore[miner].collateral = collateral;\n        SPstore[miner].status = SPstruct.Status.approved;\n    }\n\n    function getStorageProvider(address _miner)\n        public\n        view\n        returns (SPstruct.StorageProvider memory)\n    {\n        return SPstore[_miner];\n    }\n}\n",
  "sourcePath": "D:\\Dev\\0Ethindia\\truffle\\contracts\\StorageProvider.sol",
  "compiler": {
    "name": "solc",
    "version": "0.8.23+commit.f704f362.Emscripten.clang"
  },
  "schemaVersion": "3.4.8",
  "updatedAt": "2023-12-09T09:39:34.978Z",
  "devdoc": {
    "kind": "dev",
    "methods": {},
    "version": 1
  },
  "userdoc": {
    "errors": {
      "ActorNotFound()": [
        {
          "notice": "the actor is not found"
        }
      ],
      "FailToCallActor()": [
        {
          "notice": "an error happened trying to call the actor"
        },
        {
          "notice": "an error happened trying to call the actor"
        }
      ],
      "InvalidActorID(uint64)": [
        {
          "notice": "the provided actor id is not valid"
        }
      ],
      "InvalidCodec(uint64)": [
        {
          "notice": "the codec received is not valid"
        }
      ],
      "InvalidResponseLength()": [
        {
          "notice": "the response received is not correct. In some case no response is expected and we received one, or a response was indeed expected and we received none."
        }
      ],
      "NotEnoughBalance(uint256,uint256)": [
        {
          "notice": "the smart contract has no enough balance to transfer"
        }
      ]
    },
    "kind": "user",
    "methods": {},
    "version": 1
  }
}